{
  "_format": "hh-sol-artifact-1",
  "contractName": "AaveStokvel",
  "sourceName": "contracts/AaveStokvel.sol",
  "abi": [
    {
      "inputs": [
        {
          "internalType": "address",
          "name": "_addressProvider",
          "type": "address"
        },
        {
          "internalType": "address",
          "name": "_usdcAddress",
          "type": "address"
        }
      ],
      "stateMutability": "nonpayable",
      "type": "constructor"
    },
    {
      "inputs": [
        {
          "internalType": "uint256",
          "name": "_amount",
          "type": "uint256"
        }
      ],
      "name": "depositUSDC",
      "outputs": [],
      "stateMutability": "nonpayable",
      "type": "function"
    },
    {
      "inputs": [],
      "name": "getBalance",
      "outputs": [
        {
          "internalType": "uint256",
          "name": "",
          "type": "uint256"
        }
      ],
      "stateMutability": "view",
      "type": "function"
    },
    {
      "inputs": [
        {
          "internalType": "address",
          "name": "_userAddress",
          "type": "address"
        }
      ],
      "name": "getUserUSDCBalance",
      "outputs": [
        {
          "internalType": "uint256",
          "name": "",
          "type": "uint256"
        }
      ],
      "stateMutability": "view",
      "type": "function"
    },
    {
      "inputs": [],
      "name": "owner",
      "outputs": [
        {
          "internalType": "address payable",
          "name": "",
          "type": "address"
        }
      ],
      "stateMutability": "view",
      "type": "function"
    },
    {
      "inputs": [
        {
          "internalType": "address",
          "name": "",
          "type": "address"
        }
      ],
      "name": "usdcBalances",
      "outputs": [
        {
          "internalType": "uint256",
          "name": "",
          "type": "uint256"
        }
      ],
      "stateMutability": "view",
      "type": "function"
    }
  ],
  "bytecode": "0x608060405234801561001057600080fd5b50604051610afa380380610afa8339818101604052810190610032919061019f565b336000806101000a81548173ffffffffffffffffffffffffffffffffffffffff021916908373ffffffffffffffffffffffffffffffffffffffff16021790555080600160006101000a81548173ffffffffffffffffffffffffffffffffffffffff021916908373ffffffffffffffffffffffffffffffffffffffff16021790555080600260006101000a81548173ffffffffffffffffffffffffffffffffffffffff021916908373ffffffffffffffffffffffffffffffffffffffff16021790555081600460006101000a81548173ffffffffffffffffffffffffffffffffffffffff021916908373ffffffffffffffffffffffffffffffffffffffff16021790555050506101df565b600080fd5b600073ffffffffffffffffffffffffffffffffffffffff82169050919050565b600061016c82610141565b9050919050565b61017c81610161565b811461018757600080fd5b50565b60008151905061019981610173565b92915050565b600080604083850312156101b6576101b561013c565b5b60006101c48582860161018a565b92505060206101d58582860161018a565b9150509250929050565b61090c806101ee6000396000f3fe608060405234801561001057600080fd5b50600436106100575760003560e01c806312065fe01461005c5780638da5cb5b1461007a578063a99c68c514610098578063eb47ea66146100c8578063f688bcfb146100f8575b600080fd5b610064610114565b60405161007191906104ed565b60405180910390f35b6100826101b7565b60405161008f9190610549565b60405180910390f35b6100b260048036038101906100ad91906105a7565b6101db565b6040516100bf91906104ed565b60405180910390f35b6100e260048036038101906100dd91906105a7565b6101f3565b6040516100ef91906104ed565b60405180910390f35b610112600480360381019061010d9190610600565b61023c565b005b6000600260009054906101000a900473ffffffffffffffffffffffffffffffffffffffff1673ffffffffffffffffffffffffffffffffffffffff166370a08231306040518263ffffffff1660e01b8152600401610171919061063c565b602060405180830381865afa15801561018e573d6000803e3d6000fd5b505050506040513d601f19601f820116820180604052508101906101b2919061066c565b905090565b60008054906101000a900473ffffffffffffffffffffffffffffffffffffffff1681565b60036020528060005260406000206000915090505481565b6000600360008373ffffffffffffffffffffffffffffffffffffffff1673ffffffffffffffffffffffffffffffffffffffff168152602001908152602001600020549050919050565b80600360003373ffffffffffffffffffffffffffffffffffffffff1673ffffffffffffffffffffffffffffffffffffffff168152602001908152602001600020600082825461028b91906106c8565b925050819055506000600160009054906101000a900473ffffffffffffffffffffffffffffffffffffffff1673ffffffffffffffffffffffffffffffffffffffff1663dd62ed3e33306040518363ffffffff1660e01b81526004016102f19291906106fc565b602060405180830381865afa15801561030e573d6000803e3d6000fd5b505050506040513d601f19601f82011682018060405250810190610332919061066c565b905081811015610377576040517f08c379a000000000000000000000000000000000000000000000000000000000815260040161036e90610782565b60405180910390fd5b600160009054906101000a900473ffffffffffffffffffffffffffffffffffffffff1673ffffffffffffffffffffffffffffffffffffffff166323b872dd3330856040518463ffffffff1660e01b81526004016103d6939291906107a2565b6020604051808303816000875af11580156103f5573d6000803e3d6000fd5b505050506040513d601f19601f820116820180604052508101906104199190610811565b50600460009054906101000a900473ffffffffffffffffffffffffffffffffffffffff1673ffffffffffffffffffffffffffffffffffffffff1663617ba037600260009054906101000a900473ffffffffffffffffffffffffffffffffffffffff16843060006040518563ffffffff1660e01b815260040161049e9493929190610891565b600060405180830381600087803b1580156104b857600080fd5b505af11580156104cc573d6000803e3d6000fd5b505050505050565b6000819050919050565b6104e7816104d4565b82525050565b600060208201905061050260008301846104de565b92915050565b600073ffffffffffffffffffffffffffffffffffffffff82169050919050565b600061053382610508565b9050919050565b61054381610528565b82525050565b600060208201905061055e600083018461053a565b92915050565b600080fd5b600061057482610508565b9050919050565b61058481610569565b811461058f57600080fd5b50565b6000813590506105a18161057b565b92915050565b6000602082840312156105bd576105bc610564565b5b60006105cb84828501610592565b91505092915050565b6105dd816104d4565b81146105e857600080fd5b50565b6000813590506105fa816105d4565b92915050565b60006020828403121561061657610615610564565b5b6000610624848285016105eb565b91505092915050565b61063681610569565b82525050565b6000602082019050610651600083018461062d565b92915050565b600081519050610666816105d4565b92915050565b60006020828403121561068257610681610564565b5b600061069084828501610657565b91505092915050565b7f4e487b7100000000000000000000000000000000000000000000000000000000600052601160045260246000fd5b60006106d3826104d4565b91506106de836104d4565b92508282019050808211156106f6576106f5610699565b5b92915050565b6000604082019050610711600083018561062d565b61071e602083018461062d565b9392505050565b600082825260208201905092915050565b7f436865636b2074686520746f6b656e20616c6c6f77616e636500000000000000600082015250565b600061076c601983610725565b915061077782610736565b602082019050919050565b6000602082019050818103600083015261079b8161075f565b9050919050565b60006060820190506107b7600083018661062d565b6107c4602083018561062d565b6107d160408301846104de565b949350505050565b60008115159050919050565b6107ee816107d9565b81146107f957600080fd5b50565b60008151905061080b816107e5565b92915050565b60006020828403121561082757610826610564565b5b6000610835848285016107fc565b91505092915050565b6000819050919050565b600061ffff82169050919050565b6000819050919050565b600061087b6108766108718461083e565b610856565b610848565b9050919050565b61088b81610860565b82525050565b60006080820190506108a6600083018761062d565b6108b360208301866104de565b6108c0604083018561062d565b6108cd6060830184610882565b9594505050505056fea264697066735822122018c34306c630b4adff954423aca190703ce49173ec5135b0a7946bb778ebf5e664736f6c63430008180033",
  "linkReferences": {},
  "deployedLinkReferences": {}
}