{
  "_format": "hh-sol-artifact-1",
  "contractName": "AaveStokvel",
  "sourceName": "contracts/AaveStokvel.sol",
  "abi": [
    {
      "inputs": [
        {
          "internalType": "address",
          "name": "_addressProvider",
          "type": "address"
        },
        {
          "internalType": "address",
          "name": "_usdcAddress",
          "type": "address"
        }
      ],
      "stateMutability": "nonpayable",
      "type": "constructor"
    },
    {
      "inputs": [
        {
          "internalType": "uint256",
          "name": "_amount",
          "type": "uint256"
        }
      ],
      "name": "depositUSDC",
      "outputs": [],
      "stateMutability": "nonpayable",
      "type": "function"
    },
    {
      "inputs": [],
      "name": "getBalance",
      "outputs": [
        {
          "internalType": "uint256",
          "name": "",
          "type": "uint256"
        }
      ],
      "stateMutability": "view",
      "type": "function"
    },
    {
      "inputs": [
        {
          "internalType": "address",
          "name": "_userAddress",
          "type": "address"
        }
      ],
      "name": "getUserUSDCBalance",
      "outputs": [
        {
          "internalType": "uint256",
          "name": "",
          "type": "uint256"
        }
      ],
      "stateMutability": "view",
      "type": "function"
    },
    {
      "inputs": [],
      "name": "owner",
      "outputs": [
        {
          "internalType": "address payable",
          "name": "",
          "type": "address"
        }
      ],
      "stateMutability": "view",
      "type": "function"
    },
    {
      "inputs": [
        {
          "internalType": "address",
          "name": "",
          "type": "address"
        }
      ],
      "name": "usdcBalances",
      "outputs": [
        {
          "internalType": "uint256",
          "name": "",
          "type": "uint256"
        }
      ],
      "stateMutability": "view",
      "type": "function"
    }
  ],
  "bytecode": "0x608060405234801561001057600080fd5b50604051610d43380380610d438339818101604052810190610032919061019f565b336000806101000a81548173ffffffffffffffffffffffffffffffffffffffff021916908373ffffffffffffffffffffffffffffffffffffffff16021790555080600160006101000a81548173ffffffffffffffffffffffffffffffffffffffff021916908373ffffffffffffffffffffffffffffffffffffffff16021790555080600260006101000a81548173ffffffffffffffffffffffffffffffffffffffff021916908373ffffffffffffffffffffffffffffffffffffffff16021790555081600460006101000a81548173ffffffffffffffffffffffffffffffffffffffff021916908373ffffffffffffffffffffffffffffffffffffffff16021790555050506101df565b600080fd5b600073ffffffffffffffffffffffffffffffffffffffff82169050919050565b600061016c82610141565b9050919050565b61017c81610161565b811461018757600080fd5b50565b60008151905061019981610173565b92915050565b600080604083850312156101b6576101b561013c565b5b60006101c48582860161018a565b92505060206101d58582860161018a565b9150509250929050565b610b55806101ee6000396000f3fe608060405234801561001057600080fd5b50600436106100575760003560e01c806312065fe01461005c5780638da5cb5b1461007a578063a99c68c514610098578063eb47ea66146100c8578063f688bcfb146100f8575b600080fd5b610064610114565b6040516100719190610635565b60405180910390f35b6100826101b7565b60405161008f9190610691565b60405180910390f35b6100b260048036038101906100ad91906106ef565b6101db565b6040516100bf9190610635565b60405180910390f35b6100e260048036038101906100dd91906106ef565b6101f3565b6040516100ef9190610635565b60405180910390f35b610112600480360381019061010d9190610748565b61023c565b005b6000600260009054906101000a900473ffffffffffffffffffffffffffffffffffffffff1673ffffffffffffffffffffffffffffffffffffffff166370a08231306040518263ffffffff1660e01b81526004016101719190610784565b602060405180830381865afa15801561018e573d6000803e3d6000fd5b505050506040513d601f19601f820116820180604052508101906101b291906107b4565b905090565b60008054906101000a900473ffffffffffffffffffffffffffffffffffffffff1681565b60036020528060005260406000206000915090505481565b6000600360008373ffffffffffffffffffffffffffffffffffffffff1673ffffffffffffffffffffffffffffffffffffffff168152602001908152602001600020549050919050565b6000600160009054906101000a900473ffffffffffffffffffffffffffffffffffffffff1673ffffffffffffffffffffffffffffffffffffffff1663dd62ed3e33306040518363ffffffff1660e01b815260040161029b9291906107e1565b602060405180830381865afa1580156102b8573d6000803e3d6000fd5b505050506040513d601f19601f820116820180604052508101906102dc91906107b4565b905081811015610321576040517f08c379a000000000000000000000000000000000000000000000000000000000815260040161031890610867565b60405180910390fd5b6000600160009054906101000a900473ffffffffffffffffffffffffffffffffffffffff1673ffffffffffffffffffffffffffffffffffffffff166323b872dd3330866040518463ffffffff1660e01b815260040161038293929190610887565b6020604051808303816000875af11580156103a1573d6000803e3d6000fd5b505050506040513d601f19601f820116820180604052508101906103c591906108f6565b905080610407576040517f08c379a00000000000000000000000000000000000000000000000000000000081526004016103fe9061096f565b60405180910390fd5b600160009054906101000a900473ffffffffffffffffffffffffffffffffffffffff1673ffffffffffffffffffffffffffffffffffffffff1663095ea7b3600460009054906101000a900473ffffffffffffffffffffffffffffffffffffffff16856040518363ffffffff1660e01b815260040161048692919061098f565b6020604051808303816000875af11580156104a5573d6000803e3d6000fd5b505050506040513d601f19601f820116820180604052508101906104c991906108f6565b90508061050b576040517f08c379a000000000000000000000000000000000000000000000000000000000815260040161050290610a04565b60405180910390fd5b600460009054906101000a900473ffffffffffffffffffffffffffffffffffffffff1673ffffffffffffffffffffffffffffffffffffffff1663617ba037600260009054906101000a900473ffffffffffffffffffffffffffffffffffffffff16853060006040518563ffffffff1660e01b815260040161058f9493929190610a77565b600060405180830381600087803b1580156105a957600080fd5b505af11580156105bd573d6000803e3d6000fd5b5050505082600360003373ffffffffffffffffffffffffffffffffffffffff1673ffffffffffffffffffffffffffffffffffffffff16815260200190815260200160002060008282546106109190610aeb565b92505081905550505050565b6000819050919050565b61062f8161061c565b82525050565b600060208201905061064a6000830184610626565b92915050565b600073ffffffffffffffffffffffffffffffffffffffff82169050919050565b600061067b82610650565b9050919050565b61068b81610670565b82525050565b60006020820190506106a66000830184610682565b92915050565b600080fd5b60006106bc82610650565b9050919050565b6106cc816106b1565b81146106d757600080fd5b50565b6000813590506106e9816106c3565b92915050565b600060208284031215610705576107046106ac565b5b6000610713848285016106da565b91505092915050565b6107258161061c565b811461073057600080fd5b50565b6000813590506107428161071c565b92915050565b60006020828403121561075e5761075d6106ac565b5b600061076c84828501610733565b91505092915050565b61077e816106b1565b82525050565b60006020820190506107996000830184610775565b92915050565b6000815190506107ae8161071c565b92915050565b6000602082840312156107ca576107c96106ac565b5b60006107d88482850161079f565b91505092915050565b60006040820190506107f66000830185610775565b6108036020830184610775565b9392505050565b600082825260208201905092915050565b7f436865636b2074686520746f6b656e20616c6c6f77616e636500000000000000600082015250565b600061085160198361080a565b915061085c8261081b565b602082019050919050565b6000602082019050818103600083015261088081610844565b9050919050565b600060608201905061089c6000830186610775565b6108a96020830185610775565b6108b66040830184610626565b949350505050565b60008115159050919050565b6108d3816108be565b81146108de57600080fd5b50565b6000815190506108f0816108ca565b92915050565b60006020828403121561090c5761090b6106ac565b5b600061091a848285016108e1565b91505092915050565b7f55534443207472616e73666572206661696c6564000000000000000000000000600082015250565b600061095960148361080a565b915061096482610923565b602082019050919050565b600060208201905081810360008301526109888161094c565b9050919050565b60006040820190506109a46000830185610775565b6109b16020830184610626565b9392505050565b7f5553444320617070726f76616c206661696c6564000000000000000000000000600082015250565b60006109ee60148361080a565b91506109f9826109b8565b602082019050919050565b60006020820190508181036000830152610a1d816109e1565b9050919050565b6000819050919050565b600061ffff82169050919050565b6000819050919050565b6000610a61610a5c610a5784610a24565b610a3c565b610a2e565b9050919050565b610a7181610a46565b82525050565b6000608082019050610a8c6000830187610775565b610a996020830186610626565b610aa66040830185610775565b610ab36060830184610a68565b95945050505050565b7f4e487b7100000000000000000000000000000000000000000000000000000000600052601160045260246000fd5b6000610af68261061c565b9150610b018361061c565b9250828201905080821115610b1957610b18610abc565b5b9291505056fea264697066735822122072d6e50546ed45aebbb736ddfafa85822a5b70f94ad1c95ac35e46c79ab02b2c64736f6c63430008180033",
  "linkReferences": {},
  "deployedLinkReferences": {}
}