{
  "address": "0xA823AB7964f6dc41EBe1973511891c87A5016F42",
  "abi": [
    {
      "inputs": [
        {
          "internalType": "address",
          "name": "_usdcTokenAddress",
          "type": "address"
        },
        {
          "internalType": "address",
          "name": "_provider",
          "type": "address"
        },
        {
          "internalType": "uint256",
          "name": "_deadline",
          "type": "uint256"
        },
        {
          "internalType": "string",
          "name": "goalName",
          "type": "string"
        },
        {
          "internalType": "string",
          "name": "goalDescription",
          "type": "string"
        },
        {
          "internalType": "uint256",
          "name": "targetAmount",
          "type": "uint256"
        },
        {
          "internalType": "address",
          "name": "_aTokenAddress",
          "type": "address"
        }
      ],
      "stateMutability": "nonpayable",
      "type": "constructor"
    },
    {
      "inputs": [],
      "name": "aToken",
      "outputs": [
        {
          "internalType": "contract IERC20",
          "name": "",
          "type": "address"
        }
      ],
      "stateMutability": "view",
      "type": "function"
    },
    {
      "inputs": [
        {
          "internalType": "address",
          "name": "",
          "type": "address"
        }
      ],
      "name": "balances",
      "outputs": [
        {
          "internalType": "uint256",
          "name": "",
          "type": "uint256"
        }
      ],
      "stateMutability": "view",
      "type": "function"
    },
    {
      "inputs": [],
      "name": "calculateInterestEarned",
      "outputs": [
        {
          "internalType": "uint256",
          "name": "",
          "type": "uint256"
        }
      ],
      "stateMutability": "view",
      "type": "function"
    },
    {
      "inputs": [],
      "name": "checkInterestEarned",
      "outputs": [
        {
          "internalType": "uint256",
          "name": "",
          "type": "uint256"
        }
      ],
      "stateMutability": "view",
      "type": "function"
    },
    {
      "inputs": [
        {
          "internalType": "uint256",
          "name": "amount",
          "type": "uint256"
        }
      ],
      "name": "deposit",
      "outputs": [],
      "stateMutability": "nonpayable",
      "type": "function"
    },
    {
      "inputs": [],
      "name": "getGoalInfo",
      "outputs": [
        {
          "internalType": "string",
          "name": "",
          "type": "string"
        },
        {
          "internalType": "string",
          "name": "",
          "type": "string"
        },
        {
          "internalType": "uint256",
          "name": "",
          "type": "uint256"
        },
        {
          "internalType": "uint256",
          "name": "",
          "type": "uint256"
        },
        {
          "internalType": "uint256",
          "name": "",
          "type": "uint256"
        },
        {
          "internalType": "uint256",
          "name": "",
          "type": "uint256"
        }
      ],
      "stateMutability": "view",
      "type": "function"
    },
    {
      "inputs": [],
      "name": "goal",
      "outputs": [
        {
          "internalType": "string",
          "name": "name",
          "type": "string"
        },
        {
          "internalType": "string",
          "name": "goal",
          "type": "string"
        },
        {
          "internalType": "uint256",
          "name": "pooled",
          "type": "uint256"
        },
        {
          "internalType": "uint256",
          "name": "target",
          "type": "uint256"
        },
        {
          "internalType": "uint256",
          "name": "deadline",
          "type": "uint256"
        },
        {
          "internalType": "uint256",
          "name": "flexers",
          "type": "uint256"
        }
      ],
      "stateMutability": "view",
      "type": "function"
    },
    {
      "inputs": [],
      "name": "initialATokenBalance",
      "outputs": [
        {
          "internalType": "uint256",
          "name": "",
          "type": "uint256"
        }
      ],
      "stateMutability": "view",
      "type": "function"
    },
    {
      "inputs": [],
      "name": "provider",
      "outputs": [
        {
          "internalType": "contract IPoolAddressesProvider",
          "name": "",
          "type": "address"
        }
      ],
      "stateMutability": "view",
      "type": "function"
    },
    {
      "inputs": [],
      "name": "usdcTokenAddress",
      "outputs": [
        {
          "internalType": "address",
          "name": "",
          "type": "address"
        }
      ],
      "stateMutability": "view",
      "type": "function"
    },
    {
      "inputs": [
        {
          "internalType": "uint256",
          "name": "amount",
          "type": "uint256"
        }
      ],
      "name": "withdraw",
      "outputs": [],
      "stateMutability": "nonpayable",
      "type": "function"
    }
  ],
  "transactionHash": "0xe2cea9a04e37091aa3d22f708e033a502bb009cba875aae0d61731351956d67d",
  "args": [
    "0x036CbD53842c5426634e7929541eC2318f3dCF7e",
    "0xd449FeD49d9C443688d6816fE6872F21402e41de",
    1725926400,
    "Devcon Bangkok Trip",
    "Saving to attend DevCon 2024 in Bangkok",
    800000000,
    "0xf53B60F4006cab2b3C4688ce41fD5362427A2A66"
  ],
  "numDeployments": 7,
  "solcInputHash": "e68118af56cda566bff8619edfdb96c9",
  "bytecode": "0x60806040523480156200001157600080fd5b5060405162001c6938038062001c698339818101604052810190620000379190620003c6565b86600760006101000a81548173ffffffffffffffffffffffffffffffffffffffff021916908373ffffffffffffffffffffffffffffffffffffffff16021790555085600860006101000a81548173ffffffffffffffffffffffffffffffffffffffff021916908373ffffffffffffffffffffffffffffffffffffffff1602179055506040518060c0016040528085815260200184815260200160008152602001838152602001868152602001600081525060016000820151816000019081620001019190620006f8565b506020820151816001019081620001199190620006f8565b5060408201518160020155606082015181600301556080820151816004015560a0820151816005015590505080600960006101000a81548173ffffffffffffffffffffffffffffffffffffffff021916908373ffffffffffffffffffffffffffffffffffffffff16021790555050505050505050620007df565b6000604051905090565b600080fd5b600080fd5b600073ffffffffffffffffffffffffffffffffffffffff82169050919050565b6000620001d482620001a7565b9050919050565b620001e681620001c7565b8114620001f257600080fd5b50565b6000815190506200020681620001db565b92915050565b6000819050919050565b62000221816200020c565b81146200022d57600080fd5b50565b600081519050620002418162000216565b92915050565b600080fd5b600080fd5b6000601f19601f8301169050919050565b7f4e487b7100000000000000000000000000000000000000000000000000000000600052604160045260246000fd5b6200029c8262000251565b810181811067ffffffffffffffff82111715620002be57620002bd62000262565b5b80604052505050565b6000620002d362000193565b9050620002e1828262000291565b919050565b600067ffffffffffffffff82111562000304576200030362000262565b5b6200030f8262000251565b9050602081019050919050565b60005b838110156200033c5780820151818401526020810190506200031f565b60008484015250505050565b60006200035f6200035984620002e6565b620002c7565b9050828152602081018484840111156200037e576200037d6200024c565b5b6200038b8482856200031c565b509392505050565b600082601f830112620003ab57620003aa62000247565b5b8151620003bd84826020860162000348565b91505092915050565b600080600080600080600060e0888a031215620003e857620003e76200019d565b5b6000620003f88a828b01620001f5565b97505060206200040b8a828b01620001f5565b96505060406200041e8a828b0162000230565b955050606088015167ffffffffffffffff811115620004425762000441620001a2565b5b620004508a828b0162000393565b945050608088015167ffffffffffffffff811115620004745762000473620001a2565b5b620004828a828b0162000393565b93505060a0620004958a828b0162000230565b92505060c0620004a88a828b01620001f5565b91505092959891949750929550565b600081519050919050565b7f4e487b7100000000000000000000000000000000000000000000000000000000600052602260045260246000fd5b600060028204905060018216806200050a57607f821691505b60208210810362000520576200051f620004c2565b5b50919050565b60008190508160005260206000209050919050565b60006020601f8301049050919050565b600082821b905092915050565b6000600883026200058a7fffffffffffffffffffffffffffffffffffffffffffffffffffffffffffffffff826200054b565b6200059686836200054b565b95508019841693508086168417925050509392505050565b6000819050919050565b6000620005d9620005d3620005cd846200020c565b620005ae565b6200020c565b9050919050565b6000819050919050565b620005f583620005b8565b6200060d6200060482620005e0565b84845462000558565b825550505050565b600090565b6200062462000615565b62000631818484620005ea565b505050565b5b8181101562000659576200064d6000826200061a565b60018101905062000637565b5050565b601f821115620006a857620006728162000526565b6200067d846200053b565b810160208510156200068d578190505b620006a56200069c856200053b565b83018262000636565b50505b505050565b600082821c905092915050565b6000620006cd60001984600802620006ad565b1980831691505092915050565b6000620006e88383620006ba565b9150826002028217905092915050565b6200070382620004b7565b67ffffffffffffffff8111156200071f576200071e62000262565b5b6200072b8254620004f1565b620007388282856200065d565b600060209050601f8311600181146200077057600084156200075b578287015190505b620007678582620006da565b865550620007d7565b601f198416620007808662000526565b60005b82811015620007aa5784890151825560018201915060208501945060208101905062000783565b86831015620007ca5784890151620007c6601f891682620006ba565b8355505b6001600288020188555050505b505050505050565b61147a80620007ef6000396000f3fe608060405234801561001057600080fd5b50600436106100a95760003560e01c80634019388311610071578063401938831461015957806376f73cf31461017c57806377b53ece1461019a5780638234be5a146101b8578063a0c1f15e146101d6578063b6b55f25146101f4576100a9565b8063085d4883146100ae5780630efbf6d6146100cc57806327e235e3146100ea5780632e1a7d4d1461011a5780633654677914610136575b600080fd5b6100b6610210565b6040516100c39190610dea565b60405180910390f35b6100d4610236565b6040516100e19190610e1e565b60405180910390f35b61010460048036038101906100ff9190610e7c565b6102d9565b6040516101119190610e1e565b60405180910390f35b610134600480360381019061012f9190610ed5565b6102f1565b005b61013e6105dc565b60405161015096959493929190610f92565b60405180910390f35b610161610732565b60405161017396959493929190610f92565b60405180910390f35b61018461086c565b6040516101919190610e1e565b60405180910390f35b6101a2610872565b6040516101af9190611010565b60405180910390f35b6101c0610898565b6040516101cd9190610e1e565b60405180910390f35b6101de61095e565b6040516101eb919061104c565b60405180910390f35b61020e60048036038101906102099190610ed5565b610984565b005b600860009054906101000a900473ffffffffffffffffffffffffffffffffffffffff1681565b6000600960009054906101000a900473ffffffffffffffffffffffffffffffffffffffff1673ffffffffffffffffffffffffffffffffffffffff166370a08231306040518263ffffffff1660e01b81526004016102939190611010565b602060405180830381865afa1580156102b0573d6000803e3d6000fd5b505050506040513d601f19601f820116820180604052508101906102d4919061107c565b905090565b60006020528060005260406000206000915090505481565b806000803373ffffffffffffffffffffffffffffffffffffffff1673ffffffffffffffffffffffffffffffffffffffff168152602001908152602001600020541015610372576040517f08c379a0000000000000000000000000000000000000000000000000000000008152600401610369906110f5565b60405180910390fd5b6000600860009054906101000a900473ffffffffffffffffffffffffffffffffffffffff1673ffffffffffffffffffffffffffffffffffffffff1663026b1d5f6040518163ffffffff1660e01b8152600401602060405180830381865afa1580156103e1573d6000803e3d6000fd5b505050506040513d601f19601f82011682018060405250810190610405919061112a565b90508073ffffffffffffffffffffffffffffffffffffffff166369328dec600760009054906101000a900473ffffffffffffffffffffffffffffffffffffffff1684306040518463ffffffff1660e01b815260040161046693929190611157565b6020604051808303816000875af1158015610485573d6000803e3d6000fd5b505050506040513d601f19601f820116820180604052508101906104a9919061107c565b50600760009054906101000a900473ffffffffffffffffffffffffffffffffffffffff1673ffffffffffffffffffffffffffffffffffffffff1663a9059cbb33846040518363ffffffff1660e01b815260040161050792919061118e565b6020604051808303816000875af1158015610526573d6000803e3d6000fd5b505050506040513d601f19601f8201168201806040525081019061054a91906111ef565b50816000803373ffffffffffffffffffffffffffffffffffffffff1673ffffffffffffffffffffffffffffffffffffffff1681526020019081526020016000206000828254610599919061124b565b9250508190555081600160020160008282546105b5919061124b565b9250508190555060018060050160008282546105d1919061124b565b925050819055505050565b606080600080600080600160000160018001600160020154600160030154600160040154600160050154858054610612906112ae565b80601f016020809104026020016040519081016040528092919081815260200182805461063e906112ae565b801561068b5780601f106106605761010080835404028352916020019161068b565b820191906000526020600020905b81548152906001019060200180831161066e57829003601f168201915b5050505050955084805461069e906112ae565b80601f01602080910402602001604051908101604052809291908181526020018280546106ca906112ae565b80156107175780601f106106ec57610100808354040283529160200191610717565b820191906000526020600020905b8154815290600101906020018083116106fa57829003601f168201915b50505050509450955095509550955095509550909192939495565b6001806000018054610743906112ae565b80601f016020809104026020016040519081016040528092919081815260200182805461076f906112ae565b80156107bc5780601f10610791576101008083540402835291602001916107bc565b820191906000526020600020905b81548152906001019060200180831161079f57829003601f168201915b5050505050908060010180546107d1906112ae565b80601f01602080910402602001604051908101604052809291908181526020018280546107fd906112ae565b801561084a5780601f1061081f5761010080835404028352916020019161084a565b820191906000526020600020905b81548152906001019060200180831161082d57829003601f168201915b5050505050908060020154908060030154908060040154908060050154905086565b600a5481565b600760009054906101000a900473ffffffffffffffffffffffffffffffffffffffff1681565b600080600960009054906101000a900473ffffffffffffffffffffffffffffffffffffffff1673ffffffffffffffffffffffffffffffffffffffff166370a08231306040518263ffffffff1660e01b81526004016108f69190611010565b602060405180830381865afa158015610913573d6000803e3d6000fd5b505050506040513d601f19601f82011682018060405250810190610937919061107c565b9050600a548111610949576000610958565b600a5481610957919061124b565b5b91505090565b600960009054906101000a900473ffffffffffffffffffffffffffffffffffffffff1681565b60016004015442106109cb576040517f08c379a00000000000000000000000000000000000000000000000000000000081526004016109c29061132b565b60405180910390fd5b600760009054906101000a900473ffffffffffffffffffffffffffffffffffffffff1673ffffffffffffffffffffffffffffffffffffffff166323b872dd3330846040518463ffffffff1660e01b8152600401610a2a9392919061134b565b6020604051808303816000875af1158015610a49573d6000803e3d6000fd5b505050506040513d601f19601f82011682018060405250810190610a6d91906111ef565b50806000803373ffffffffffffffffffffffffffffffffffffffff1673ffffffffffffffffffffffffffffffffffffffff1681526020019081526020016000206000828254610abc9190611382565b925050819055508060016002016000828254610ad89190611382565b925050819055506001806005016000828254610af49190611382565b925050819055506000600860009054906101000a900473ffffffffffffffffffffffffffffffffffffffff1673ffffffffffffffffffffffffffffffffffffffff1663026b1d5f6040518163ffffffff1660e01b8152600401602060405180830381865afa158015610b6a573d6000803e3d6000fd5b505050506040513d601f19601f82011682018060405250810190610b8e919061112a565b9050600760009054906101000a900473ffffffffffffffffffffffffffffffffffffffff1673ffffffffffffffffffffffffffffffffffffffff1663095ea7b382846040518363ffffffff1660e01b8152600401610bed92919061118e565b6020604051808303816000875af1158015610c0c573d6000803e3d6000fd5b505050506040513d601f19601f82011682018060405250810190610c3091906111ef565b508073ffffffffffffffffffffffffffffffffffffffff1663617ba037600760009054906101000a900473ffffffffffffffffffffffffffffffffffffffff16843060006040518563ffffffff1660e01b8152600401610c9394939291906113ff565b600060405180830381600087803b158015610cad57600080fd5b505af1158015610cc1573d6000803e3d6000fd5b50505050600960009054906101000a900473ffffffffffffffffffffffffffffffffffffffff1673ffffffffffffffffffffffffffffffffffffffff166370a08231306040518263ffffffff1660e01b8152600401610d209190611010565b602060405180830381865afa158015610d3d573d6000803e3d6000fd5b505050506040513d601f19601f82011682018060405250810190610d61919061107c565b600a819055505050565b600073ffffffffffffffffffffffffffffffffffffffff82169050919050565b6000819050919050565b6000610db0610dab610da684610d6b565b610d8b565b610d6b565b9050919050565b6000610dc282610d95565b9050919050565b6000610dd482610db7565b9050919050565b610de481610dc9565b82525050565b6000602082019050610dff6000830184610ddb565b92915050565b6000819050919050565b610e1881610e05565b82525050565b6000602082019050610e336000830184610e0f565b92915050565b600080fd5b6000610e4982610d6b565b9050919050565b610e5981610e3e565b8114610e6457600080fd5b50565b600081359050610e7681610e50565b92915050565b600060208284031215610e9257610e91610e39565b5b6000610ea084828501610e67565b91505092915050565b610eb281610e05565b8114610ebd57600080fd5b50565b600081359050610ecf81610ea9565b92915050565b600060208284031215610eeb57610eea610e39565b5b6000610ef984828501610ec0565b91505092915050565b600081519050919050565b600082825260208201905092915050565b60005b83811015610f3c578082015181840152602081019050610f21565b60008484015250505050565b6000601f19601f8301169050919050565b6000610f6482610f02565b610f6e8185610f0d565b9350610f7e818560208601610f1e565b610f8781610f48565b840191505092915050565b600060c0820190508181036000830152610fac8189610f59565b90508181036020830152610fc08188610f59565b9050610fcf6040830187610e0f565b610fdc6060830186610e0f565b610fe96080830185610e0f565b610ff660a0830184610e0f565b979650505050505050565b61100a81610e3e565b82525050565b60006020820190506110256000830184611001565b92915050565b600061103682610db7565b9050919050565b6110468161102b565b82525050565b6000602082019050611061600083018461103d565b92915050565b60008151905061107681610ea9565b92915050565b60006020828403121561109257611091610e39565b5b60006110a084828501611067565b91505092915050565b7f496e73756666696369656e742062616c616e6365000000000000000000000000600082015250565b60006110df601483610f0d565b91506110ea826110a9565b602082019050919050565b6000602082019050818103600083015261110e816110d2565b9050919050565b60008151905061112481610e50565b92915050565b6000602082840312156111405761113f610e39565b5b600061114e84828501611115565b91505092915050565b600060608201905061116c6000830186611001565b6111796020830185610e0f565b6111866040830184611001565b949350505050565b60006040820190506111a36000830185611001565b6111b06020830184610e0f565b9392505050565b60008115159050919050565b6111cc816111b7565b81146111d757600080fd5b50565b6000815190506111e9816111c3565b92915050565b60006020828403121561120557611204610e39565b5b6000611213848285016111da565b91505092915050565b7f4e487b7100000000000000000000000000000000000000000000000000000000600052601160045260246000fd5b600061125682610e05565b915061126183610e05565b92508282039050818111156112795761127861121c565b5b92915050565b7f4e487b7100000000000000000000000000000000000000000000000000000000600052602260045260246000fd5b600060028204905060018216806112c657607f821691505b6020821081036112d9576112d861127f565b5b50919050565b7f54686520646561646c696e6520686173207061737365642e0000000000000000600082015250565b6000611315601883610f0d565b9150611320826112df565b602082019050919050565b6000602082019050818103600083015261134481611308565b9050919050565b60006060820190506113606000830186611001565b61136d6020830185611001565b61137a6040830184610e0f565b949350505050565b600061138d82610e05565b915061139883610e05565b92508282019050808211156113b0576113af61121c565b5b92915050565b6000819050919050565b600061ffff82169050919050565b60006113e96113e46113df846113b6565b610d8b565b6113c0565b9050919050565b6113f9816113ce565b82525050565b60006080820190506114146000830187611001565b6114216020830186610e0f565b61142e6040830185611001565b61143b60608301846113f0565b9594505050505056fea264697066735822122042c144bf1185aade0d018751dce0c4318229a99a307a3170478373fe3296032b64736f6c63430008140033",
  "devdoc": {
    "kind": "dev",
    "methods": {},
    "version": 1
  },
  "userdoc": {
    "kind": "user",
    "methods": {},
    "version": 1
  },
  "storageLayout": {
    "storage": [
      {
        "astId": 1302,
        "contract": "contracts/Flexclub.sol:FlexClub",
        "label": "balances",
        "offset": 0,
        "slot": "0",
        "type": "t_mapping(t_address,t_uint256)"
      },
      {
        "astId": 1305,
        "contract": "contracts/Flexclub.sol:FlexClub",
        "label": "goal",
        "offset": 0,
        "slot": "1",
        "type": "t_struct(Goal)1298_storage"
      },
      {
        "astId": 1307,
        "contract": "contracts/Flexclub.sol:FlexClub",
        "label": "usdcTokenAddress",
        "offset": 0,
        "slot": "7",
        "type": "t_address"
      },
      {
        "astId": 1310,
        "contract": "contracts/Flexclub.sol:FlexClub",
        "label": "provider",
        "offset": 0,
        "slot": "8",
        "type": "t_contract(IPoolAddressesProvider)925"
      },
      {
        "astId": 1313,
        "contract": "contracts/Flexclub.sol:FlexClub",
        "label": "aToken",
        "offset": 0,
        "slot": "9",
        "type": "t_contract(IERC20)77"
      },
      {
        "astId": 1315,
        "contract": "contracts/Flexclub.sol:FlexClub",
        "label": "initialATokenBalance",
        "offset": 0,
        "slot": "10",
        "type": "t_uint256"
      }
    ],
    "types": {
      "t_address": {
        "encoding": "inplace",
        "label": "address",
        "numberOfBytes": "20"
      },
      "t_contract(IERC20)77": {
        "encoding": "inplace",
        "label": "contract IERC20",
        "numberOfBytes": "20"
      },
      "t_contract(IPoolAddressesProvider)925": {
        "encoding": "inplace",
        "label": "contract IPoolAddressesProvider",
        "numberOfBytes": "20"
      },
      "t_mapping(t_address,t_uint256)": {
        "encoding": "mapping",
        "key": "t_address",
        "label": "mapping(address => uint256)",
        "numberOfBytes": "32",
        "value": "t_uint256"
      },
      "t_string_storage": {
        "encoding": "bytes",
        "label": "string",
        "numberOfBytes": "32"
      },
      "t_struct(Goal)1298_storage": {
        "encoding": "inplace",
        "label": "struct FlexClub.Goal",
        "members": [
          {
            "astId": 1287,
            "contract": "contracts/Flexclub.sol:FlexClub",
            "label": "name",
            "offset": 0,
            "slot": "0",
            "type": "t_string_storage"
          },
          {
            "astId": 1289,
            "contract": "contracts/Flexclub.sol:FlexClub",
            "label": "goal",
            "offset": 0,
            "slot": "1",
            "type": "t_string_storage"
          },
          {
            "astId": 1291,
            "contract": "contracts/Flexclub.sol:FlexClub",
            "label": "pooled",
            "offset": 0,
            "slot": "2",
            "type": "t_uint256"
          },
          {
            "astId": 1293,
            "contract": "contracts/Flexclub.sol:FlexClub",
            "label": "target",
            "offset": 0,
            "slot": "3",
            "type": "t_uint256"
          },
          {
            "astId": 1295,
            "contract": "contracts/Flexclub.sol:FlexClub",
            "label": "deadline",
            "offset": 0,
            "slot": "4",
            "type": "t_uint256"
          },
          {
            "astId": 1297,
            "contract": "contracts/Flexclub.sol:FlexClub",
            "label": "flexers",
            "offset": 0,
            "slot": "5",
            "type": "t_uint256"
          }
        ],
        "numberOfBytes": "192"
      },
      "t_uint256": {
        "encoding": "inplace",
        "label": "uint256",
        "numberOfBytes": "32"
      }
    }
  }
}