{
  "address": "0xF7B6EBCBEE752914C96f05AeA2cce60277F7e2F9",
  "abi": [
    {
      "inputs": [
        {
          "internalType": "address",
          "name": "_usdcTokenAddress",
          "type": "address"
        },
        {
          "internalType": "address",
          "name": "_provider",
          "type": "address"
        }
      ],
      "stateMutability": "nonpayable",
      "type": "constructor"
    },
    {
      "inputs": [
        {
          "internalType": "address",
          "name": "",
          "type": "address"
        }
      ],
      "name": "balances",
      "outputs": [
        {
          "internalType": "uint256",
          "name": "",
          "type": "uint256"
        }
      ],
      "stateMutability": "view",
      "type": "function"
    },
    {
      "inputs": [
        {
          "internalType": "uint256",
          "name": "amount",
          "type": "uint256"
        },
        {
          "internalType": "string",
          "name": "goalName",
          "type": "string"
        },
        {
          "internalType": "string",
          "name": "goalDescription",
          "type": "string"
        },
        {
          "internalType": "uint256",
          "name": "target",
          "type": "uint256"
        },
        {
          "internalType": "uint256",
          "name": "deadline",
          "type": "uint256"
        }
      ],
      "name": "deposit",
      "outputs": [],
      "stateMutability": "nonpayable",
      "type": "function"
    },
    {
      "inputs": [
        {
          "internalType": "uint256",
          "name": "index",
          "type": "uint256"
        }
      ],
      "name": "getGoalInfo",
      "outputs": [
        {
          "internalType": "string",
          "name": "",
          "type": "string"
        },
        {
          "internalType": "string",
          "name": "",
          "type": "string"
        },
        {
          "internalType": "uint256",
          "name": "",
          "type": "uint256"
        },
        {
          "internalType": "uint256",
          "name": "",
          "type": "uint256"
        },
        {
          "internalType": "uint256",
          "name": "",
          "type": "uint256"
        },
        {
          "internalType": "uint256",
          "name": "",
          "type": "uint256"
        }
      ],
      "stateMutability": "view",
      "type": "function"
    },
    {
      "inputs": [
        {
          "internalType": "uint256",
          "name": "",
          "type": "uint256"
        }
      ],
      "name": "goals",
      "outputs": [
        {
          "internalType": "string",
          "name": "name",
          "type": "string"
        },
        {
          "internalType": "string",
          "name": "goal",
          "type": "string"
        },
        {
          "internalType": "uint256",
          "name": "pooled",
          "type": "uint256"
        },
        {
          "internalType": "uint256",
          "name": "target",
          "type": "uint256"
        },
        {
          "internalType": "uint256",
          "name": "deadline",
          "type": "uint256"
        },
        {
          "internalType": "uint256",
          "name": "flexers",
          "type": "uint256"
        }
      ],
      "stateMutability": "view",
      "type": "function"
    },
    {
      "inputs": [],
      "name": "provider",
      "outputs": [
        {
          "internalType": "contract IPoolAddressesProvider",
          "name": "",
          "type": "address"
        }
      ],
      "stateMutability": "view",
      "type": "function"
    },
    {
      "inputs": [],
      "name": "usdcTokenAddress",
      "outputs": [
        {
          "internalType": "address",
          "name": "",
          "type": "address"
        }
      ],
      "stateMutability": "view",
      "type": "function"
    },
    {
      "inputs": [
        {
          "internalType": "address",
          "name": "",
          "type": "address"
        }
      ],
      "name": "userGoals",
      "outputs": [
        {
          "internalType": "string",
          "name": "name",
          "type": "string"
        },
        {
          "internalType": "string",
          "name": "goal",
          "type": "string"
        },
        {
          "internalType": "uint256",
          "name": "pooled",
          "type": "uint256"
        },
        {
          "internalType": "uint256",
          "name": "target",
          "type": "uint256"
        },
        {
          "internalType": "uint256",
          "name": "deadline",
          "type": "uint256"
        },
        {
          "internalType": "uint256",
          "name": "flexers",
          "type": "uint256"
        }
      ],
      "stateMutability": "view",
      "type": "function"
    },
    {
      "inputs": [
        {
          "internalType": "uint256",
          "name": "amount",
          "type": "uint256"
        }
      ],
      "name": "withdraw",
      "outputs": [],
      "stateMutability": "nonpayable",
      "type": "function"
    }
  ],
  "transactionHash": "0xcb001d89d7f284417dfee3af926f893c972bb5a669116eb40f27ab9b66e129de",
  "args": [
    "0x036CbD53842c5426634e7929541eC2318f3dCF7e",
    "0xd449FeD49d9C443688d6816fE6872F21402e41de"
  ],
  "numDeployments": 1,
  "solcInputHash": "25e3bc9ef684b0497658703a43065ca4",
  "bytecode": "0x60806040523480156200001157600080fd5b50604051620019d2380380620019d283398181016040528101906200003791906200012b565b81600360006101000a81548173ffffffffffffffffffffffffffffffffffffffff021916908373ffffffffffffffffffffffffffffffffffffffff16021790555080600460006101000a81548173ffffffffffffffffffffffffffffffffffffffff021916908373ffffffffffffffffffffffffffffffffffffffff160217905550505062000172565b600080fd5b600073ffffffffffffffffffffffffffffffffffffffff82169050919050565b6000620000f382620000c6565b9050919050565b6200010581620000e6565b81146200011157600080fd5b50565b6000815190506200012581620000fa565b92915050565b60008060408385031215620001455762000144620000c1565b5b6000620001558582860162000114565b9250506020620001688582860162000114565b9150509250929050565b61185080620001826000396000f3fe608060405234801561001057600080fd5b50600436106100885760003560e01c806377b53ece1161005b57806377b53ece1461012c5780637a1bb8e31461014a578063b7fa76c914610166578063c6cf43f21461019b57610088565b8063085d48831461008d57806327e235e3146100ab5780632e1a7d4d146100db57806361449ca2146100f7575b600080fd5b6100956101d0565b6040516100a29190610dce565b60405180910390f35b6100c560048036038101906100c09190610e3b565b6101f6565b6040516100d29190610e81565b60405180910390f35b6100f560048036038101906100f09190610ec8565b61020e565b005b610111600480360381019061010c9190610ec8565b6104c1565b60405161012396959493929190610f85565b60405180910390f35b61013461061d565b6040516101419190611003565b60405180910390f35b610164600480360381019061015f9190611153565b610643565b005b610180600480360381019061017b9190610e3b565b610a49565b60405161019296959493929190610f85565b60405180910390f35b6101b560048036038101906101b09190610ec8565b610b95565b6040516101c796959493929190610f85565b60405180910390f35b600460009054906101000a900473ffffffffffffffffffffffffffffffffffffffff1681565b60006020528060005260406000206000915090505481565b806000803373ffffffffffffffffffffffffffffffffffffffff1673ffffffffffffffffffffffffffffffffffffffff16815260200190815260200160002054101561028f576040517f08c379a000000000000000000000000000000000000000000000000000000000815260040161028690611252565b60405180910390fd5b6000600460009054906101000a900473ffffffffffffffffffffffffffffffffffffffff1673ffffffffffffffffffffffffffffffffffffffff1663026b1d5f6040518163ffffffff1660e01b8152600401602060405180830381865afa1580156102fe573d6000803e3d6000fd5b505050506040513d601f19601f820116820180604052508101906103229190611287565b90508073ffffffffffffffffffffffffffffffffffffffff166369328dec600360009054906101000a900473ffffffffffffffffffffffffffffffffffffffff1684306040518463ffffffff1660e01b8152600401610383939291906112b4565b6020604051808303816000875af11580156103a2573d6000803e3d6000fd5b505050506040513d601f19601f820116820180604052508101906103c69190611300565b50600360009054906101000a900473ffffffffffffffffffffffffffffffffffffffff1673ffffffffffffffffffffffffffffffffffffffff1663a9059cbb33846040518363ffffffff1660e01b815260040161042492919061132d565b6020604051808303816000875af1158015610443573d6000803e3d6000fd5b505050506040513d601f19601f82011682018060405250810190610467919061138e565b50816000803373ffffffffffffffffffffffffffffffffffffffff1673ffffffffffffffffffffffffffffffffffffffff16815260200190815260200160002060008282546104b691906113ea565b925050819055505050565b600281815481106104d157600080fd5b90600052602060002090600602016000915090508060000180546104f49061144d565b80601f01602080910402602001604051908101604052809291908181526020018280546105209061144d565b801561056d5780601f106105425761010080835404028352916020019161056d565b820191906000526020600020905b81548152906001019060200180831161055057829003601f168201915b5050505050908060010180546105829061144d565b80601f01602080910402602001604051908101604052809291908181526020018280546105ae9061144d565b80156105fb5780601f106105d0576101008083540402835291602001916105fb565b820191906000526020600020905b8154815290600101906020018083116105de57829003601f168201915b5050505050908060020154908060030154908060040154908060050154905086565b600360009054906101000a900473ffffffffffffffffffffffffffffffffffffffff1681565b600360009054906101000a900473ffffffffffffffffffffffffffffffffffffffff1673ffffffffffffffffffffffffffffffffffffffff166323b872dd3330886040518463ffffffff1660e01b81526004016106a29392919061147e565b6020604051808303816000875af11580156106c1573d6000803e3d6000fd5b505050506040513d601f19601f820116820180604052508101906106e5919061138e565b50846000803373ffffffffffffffffffffffffffffffffffffffff1673ffffffffffffffffffffffffffffffffffffffff168152602001908152602001600020600082825461073491906114b5565b925050819055506000600460009054906101000a900473ffffffffffffffffffffffffffffffffffffffff1673ffffffffffffffffffffffffffffffffffffffff1663026b1d5f6040518163ffffffff1660e01b8152600401602060405180830381865afa1580156107aa573d6000803e3d6000fd5b505050506040513d601f19601f820116820180604052508101906107ce9190611287565b9050600360009054906101000a900473ffffffffffffffffffffffffffffffffffffffff1673ffffffffffffffffffffffffffffffffffffffff1663095ea7b382886040518363ffffffff1660e01b815260040161082d92919061132d565b6020604051808303816000875af115801561084c573d6000803e3d6000fd5b505050506040513d601f19601f82011682018060405250810190610870919061138e565b508073ffffffffffffffffffffffffffffffffffffffff1663617ba037600360009054906101000a900473ffffffffffffffffffffffffffffffffffffffff16883060006040518563ffffffff1660e01b81526004016108d39493929190611532565b600060405180830381600087803b1580156108ed57600080fd5b505af1158015610901573d6000803e3d6000fd5b505050506000600160003373ffffffffffffffffffffffffffffffffffffffff1673ffffffffffffffffffffffffffffffffffffffff16815260200190815260200160002090506000816003015403610a085760026040518060c001604052808881526020018781526020018981526020018681526020018581526020016001815250908060018154018082558091505060019003906000526020600020906006020160009091909190915060008201518160000190816109c29190611719565b5060208201518160010190816109d89190611719565b5060408201518160020155606082015181600301556080820151816004015560a082015181600501555050610a40565b86816002016000828254610a1c91906114b5565b925050819055506001816005016000828254610a3891906114b5565b925050819055505b50505050505050565b6001602052806000526040600020600091509050806000018054610a6c9061144d565b80601f0160208091040260200160405190810160405280929190818152602001828054610a989061144d565b8015610ae55780601f10610aba57610100808354040283529160200191610ae5565b820191906000526020600020905b815481529060010190602001808311610ac857829003601f168201915b505050505090806001018054610afa9061144d565b80601f0160208091040260200160405190810160405280929190818152602001828054610b269061144d565b8015610b735780601f10610b4857610100808354040283529160200191610b73565b820191906000526020600020905b815481529060010190602001808311610b5657829003601f168201915b5050505050908060020154908060030154908060040154908060050154905086565b606080600080600080600060028881548110610bb457610bb36117eb565b5b90600052602060002090600602016040518060c0016040529081600082018054610bdd9061144d565b80601f0160208091040260200160405190810160405280929190818152602001828054610c099061144d565b8015610c565780601f10610c2b57610100808354040283529160200191610c56565b820191906000526020600020905b815481529060010190602001808311610c3957829003601f168201915b50505050508152602001600182018054610c6f9061144d565b80601f0160208091040260200160405190810160405280929190818152602001828054610c9b9061144d565b8015610ce85780601f10610cbd57610100808354040283529160200191610ce8565b820191906000526020600020905b815481529060010190602001808311610ccb57829003601f168201915b505050505081526020016002820154815260200160038201548152602001600482015481526020016005820154815250509050806000015181602001518260400151836060015184608001518560a001519650965096509650965096505091939550919395565b600073ffffffffffffffffffffffffffffffffffffffff82169050919050565b6000819050919050565b6000610d94610d8f610d8a84610d4f565b610d6f565b610d4f565b9050919050565b6000610da682610d79565b9050919050565b6000610db882610d9b565b9050919050565b610dc881610dad565b82525050565b6000602082019050610de36000830184610dbf565b92915050565b6000604051905090565b600080fd5b600080fd5b6000610e0882610d4f565b9050919050565b610e1881610dfd565b8114610e2357600080fd5b50565b600081359050610e3581610e0f565b92915050565b600060208284031215610e5157610e50610df3565b5b6000610e5f84828501610e26565b91505092915050565b6000819050919050565b610e7b81610e68565b82525050565b6000602082019050610e966000830184610e72565b92915050565b610ea581610e68565b8114610eb057600080fd5b50565b600081359050610ec281610e9c565b92915050565b600060208284031215610ede57610edd610df3565b5b6000610eec84828501610eb3565b91505092915050565b600081519050919050565b600082825260208201905092915050565b60005b83811015610f2f578082015181840152602081019050610f14565b60008484015250505050565b6000601f19601f8301169050919050565b6000610f5782610ef5565b610f618185610f00565b9350610f71818560208601610f11565b610f7a81610f3b565b840191505092915050565b600060c0820190508181036000830152610f9f8189610f4c565b90508181036020830152610fb38188610f4c565b9050610fc26040830187610e72565b610fcf6060830186610e72565b610fdc6080830185610e72565b610fe960a0830184610e72565b979650505050505050565b610ffd81610dfd565b82525050565b60006020820190506110186000830184610ff4565b92915050565b600080fd5b600080fd5b7f4e487b7100000000000000000000000000000000000000000000000000000000600052604160045260246000fd5b61106082610f3b565b810181811067ffffffffffffffff8211171561107f5761107e611028565b5b80604052505050565b6000611092610de9565b905061109e8282611057565b919050565b600067ffffffffffffffff8211156110be576110bd611028565b5b6110c782610f3b565b9050602081019050919050565b82818337600083830152505050565b60006110f66110f1846110a3565b611088565b90508281526020810184848401111561111257611111611023565b5b61111d8482856110d4565b509392505050565b600082601f83011261113a5761113961101e565b5b813561114a8482602086016110e3565b91505092915050565b600080600080600060a0868803121561116f5761116e610df3565b5b600061117d88828901610eb3565b955050602086013567ffffffffffffffff81111561119e5761119d610df8565b5b6111aa88828901611125565b945050604086013567ffffffffffffffff8111156111cb576111ca610df8565b5b6111d788828901611125565b93505060606111e888828901610eb3565b92505060806111f988828901610eb3565b9150509295509295909350565b7f496e73756666696369656e742062616c616e6365000000000000000000000000600082015250565b600061123c601483610f00565b915061124782611206565b602082019050919050565b6000602082019050818103600083015261126b8161122f565b9050919050565b60008151905061128181610e0f565b92915050565b60006020828403121561129d5761129c610df3565b5b60006112ab84828501611272565b91505092915050565b60006060820190506112c96000830186610ff4565b6112d66020830185610e72565b6112e36040830184610ff4565b949350505050565b6000815190506112fa81610e9c565b92915050565b60006020828403121561131657611315610df3565b5b6000611324848285016112eb565b91505092915050565b60006040820190506113426000830185610ff4565b61134f6020830184610e72565b9392505050565b60008115159050919050565b61136b81611356565b811461137657600080fd5b50565b60008151905061138881611362565b92915050565b6000602082840312156113a4576113a3610df3565b5b60006113b284828501611379565b91505092915050565b7f4e487b7100000000000000000000000000000000000000000000000000000000600052601160045260246000fd5b60006113f582610e68565b915061140083610e68565b9250828203905081811115611418576114176113bb565b5b92915050565b7f4e487b7100000000000000000000000000000000000000000000000000000000600052602260045260246000fd5b6000600282049050600182168061146557607f821691505b6020821081036114785761147761141e565b5b50919050565b60006060820190506114936000830186610ff4565b6114a06020830185610ff4565b6114ad6040830184610e72565b949350505050565b60006114c082610e68565b91506114cb83610e68565b92508282019050808211156114e3576114e26113bb565b5b92915050565b6000819050919050565b600061ffff82169050919050565b600061151c611517611512846114e9565b610d6f565b6114f3565b9050919050565b61152c81611501565b82525050565b60006080820190506115476000830187610ff4565b6115546020830186610e72565b6115616040830185610ff4565b61156e6060830184611523565b95945050505050565b60008190508160005260206000209050919050565b60006020601f8301049050919050565b600082821b905092915050565b6000600883026115d97fffffffffffffffffffffffffffffffffffffffffffffffffffffffffffffffff8261159c565b6115e3868361159c565b95508019841693508086168417925050509392505050565b600061161661161161160c84610e68565b610d6f565b610e68565b9050919050565b6000819050919050565b611630836115fb565b61164461163c8261161d565b8484546115a9565b825550505050565b600090565b61165961164c565b611664818484611627565b505050565b5b818110156116885761167d600082611651565b60018101905061166a565b5050565b601f8211156116cd5761169e81611577565b6116a78461158c565b810160208510156116b6578190505b6116ca6116c28561158c565b830182611669565b50505b505050565b600082821c905092915050565b60006116f0600019846008026116d2565b1980831691505092915050565b600061170983836116df565b9150826002028217905092915050565b61172282610ef5565b67ffffffffffffffff81111561173b5761173a611028565b5b611745825461144d565b61175082828561168c565b600060209050601f8311600181146117835760008415611771578287015190505b61177b85826116fd565b8655506117e3565b601f19841661179186611577565b60005b828110156117b957848901518255600182019150602085019450602081019050611794565b868310156117d657848901516117d2601f8916826116df565b8355505b6001600288020188555050505b505050505050565b7f4e487b7100000000000000000000000000000000000000000000000000000000600052603260045260246000fdfea2646970667358221220b31664b8dc87bb7152f4b282a58f5d82be6a80fbf25783caa70617dd0eac0e8a64736f6c63430008140033",
  "devdoc": {
    "kind": "dev",
    "methods": {},
    "version": 1
  },
  "userdoc": {
    "kind": "user",
    "methods": {},
    "version": 1
  },
  "storageLayout": {
    "storage": [
      {
        "astId": 1302,
        "contract": "contracts/Flexclub.sol:FlexClub",
        "label": "balances",
        "offset": 0,
        "slot": "0",
        "type": "t_mapping(t_address,t_uint256)"
      },
      {
        "astId": 1307,
        "contract": "contracts/Flexclub.sol:FlexClub",
        "label": "userGoals",
        "offset": 0,
        "slot": "1",
        "type": "t_mapping(t_address,t_struct(Goal)1298_storage)"
      },
      {
        "astId": 1311,
        "contract": "contracts/Flexclub.sol:FlexClub",
        "label": "goals",
        "offset": 0,
        "slot": "2",
        "type": "t_array(t_struct(Goal)1298_storage)dyn_storage"
      },
      {
        "astId": 1313,
        "contract": "contracts/Flexclub.sol:FlexClub",
        "label": "usdcTokenAddress",
        "offset": 0,
        "slot": "3",
        "type": "t_address"
      },
      {
        "astId": 1316,
        "contract": "contracts/Flexclub.sol:FlexClub",
        "label": "provider",
        "offset": 0,
        "slot": "4",
        "type": "t_contract(IPoolAddressesProvider)925"
      }
    ],
    "types": {
      "t_address": {
        "encoding": "inplace",
        "label": "address",
        "numberOfBytes": "20"
      },
      "t_array(t_struct(Goal)1298_storage)dyn_storage": {
        "base": "t_struct(Goal)1298_storage",
        "encoding": "dynamic_array",
        "label": "struct FlexClub.Goal[]",
        "numberOfBytes": "32"
      },
      "t_contract(IPoolAddressesProvider)925": {
        "encoding": "inplace",
        "label": "contract IPoolAddressesProvider",
        "numberOfBytes": "20"
      },
      "t_mapping(t_address,t_struct(Goal)1298_storage)": {
        "encoding": "mapping",
        "key": "t_address",
        "label": "mapping(address => struct FlexClub.Goal)",
        "numberOfBytes": "32",
        "value": "t_struct(Goal)1298_storage"
      },
      "t_mapping(t_address,t_uint256)": {
        "encoding": "mapping",
        "key": "t_address",
        "label": "mapping(address => uint256)",
        "numberOfBytes": "32",
        "value": "t_uint256"
      },
      "t_string_storage": {
        "encoding": "bytes",
        "label": "string",
        "numberOfBytes": "32"
      },
      "t_struct(Goal)1298_storage": {
        "encoding": "inplace",
        "label": "struct FlexClub.Goal",
        "members": [
          {
            "astId": 1287,
            "contract": "contracts/Flexclub.sol:FlexClub",
            "label": "name",
            "offset": 0,
            "slot": "0",
            "type": "t_string_storage"
          },
          {
            "astId": 1289,
            "contract": "contracts/Flexclub.sol:FlexClub",
            "label": "goal",
            "offset": 0,
            "slot": "1",
            "type": "t_string_storage"
          },
          {
            "astId": 1291,
            "contract": "contracts/Flexclub.sol:FlexClub",
            "label": "pooled",
            "offset": 0,
            "slot": "2",
            "type": "t_uint256"
          },
          {
            "astId": 1293,
            "contract": "contracts/Flexclub.sol:FlexClub",
            "label": "target",
            "offset": 0,
            "slot": "3",
            "type": "t_uint256"
          },
          {
            "astId": 1295,
            "contract": "contracts/Flexclub.sol:FlexClub",
            "label": "deadline",
            "offset": 0,
            "slot": "4",
            "type": "t_uint256"
          },
          {
            "astId": 1297,
            "contract": "contracts/Flexclub.sol:FlexClub",
            "label": "flexers",
            "offset": 0,
            "slot": "5",
            "type": "t_uint256"
          }
        ],
        "numberOfBytes": "192"
      },
      "t_uint256": {
        "encoding": "inplace",
        "label": "uint256",
        "numberOfBytes": "32"
      }
    }
  }
}