{
  "address": "0x800a860d010Dfc91b4EbE47A08DBa0989BCB1655",
  "abi": [
    {
      "inputs": [
        {
          "internalType": "address",
          "name": "_usdcTokenAddress",
          "type": "address"
        },
        {
          "internalType": "address",
          "name": "_provider",
          "type": "address"
        },
        {
          "internalType": "uint256",
          "name": "_deadline",
          "type": "uint256"
        },
        {
          "internalType": "string",
          "name": "goalName",
          "type": "string"
        },
        {
          "internalType": "string",
          "name": "goalDescription",
          "type": "string"
        },
        {
          "internalType": "uint256",
          "name": "targetAmount",
          "type": "uint256"
        },
        {
          "internalType": "address",
          "name": "_aTokenAddress",
          "type": "address"
        }
      ],
      "stateMutability": "nonpayable",
      "type": "constructor"
    },
    {
      "inputs": [],
      "name": "ReentrancyGuardReentrantCall",
      "type": "error"
    },
    {
      "inputs": [],
      "name": "aToken",
      "outputs": [
        {
          "internalType": "contract IERC20",
          "name": "",
          "type": "address"
        }
      ],
      "stateMutability": "view",
      "type": "function"
    },
    {
      "inputs": [
        {
          "internalType": "address",
          "name": "",
          "type": "address"
        }
      ],
      "name": "balances",
      "outputs": [
        {
          "internalType": "uint256",
          "name": "",
          "type": "uint256"
        }
      ],
      "stateMutability": "view",
      "type": "function"
    },
    {
      "inputs": [],
      "name": "calculateInterestEarned",
      "outputs": [
        {
          "internalType": "uint256",
          "name": "",
          "type": "uint256"
        }
      ],
      "stateMutability": "view",
      "type": "function"
    },
    {
      "inputs": [],
      "name": "checkInterestEarned",
      "outputs": [
        {
          "internalType": "uint256",
          "name": "",
          "type": "uint256"
        }
      ],
      "stateMutability": "view",
      "type": "function"
    },
    {
      "inputs": [
        {
          "internalType": "uint256",
          "name": "amount",
          "type": "uint256"
        }
      ],
      "name": "deposit",
      "outputs": [],
      "stateMutability": "nonpayable",
      "type": "function"
    },
    {
      "inputs": [
        {
          "internalType": "address",
          "name": "user",
          "type": "address"
        }
      ],
      "name": "getEffectiveBalance",
      "outputs": [
        {
          "internalType": "uint256",
          "name": "",
          "type": "uint256"
        }
      ],
      "stateMutability": "view",
      "type": "function"
    },
    {
      "inputs": [],
      "name": "getGoalInfo",
      "outputs": [
        {
          "internalType": "string",
          "name": "",
          "type": "string"
        },
        {
          "internalType": "string",
          "name": "",
          "type": "string"
        },
        {
          "internalType": "uint256",
          "name": "",
          "type": "uint256"
        },
        {
          "internalType": "uint256",
          "name": "",
          "type": "uint256"
        },
        {
          "internalType": "uint256",
          "name": "",
          "type": "uint256"
        },
        {
          "internalType": "uint256",
          "name": "",
          "type": "uint256"
        }
      ],
      "stateMutability": "view",
      "type": "function"
    },
    {
      "inputs": [],
      "name": "goal",
      "outputs": [
        {
          "internalType": "string",
          "name": "name",
          "type": "string"
        },
        {
          "internalType": "string",
          "name": "goal",
          "type": "string"
        },
        {
          "internalType": "uint256",
          "name": "pooled",
          "type": "uint256"
        },
        {
          "internalType": "uint256",
          "name": "target",
          "type": "uint256"
        },
        {
          "internalType": "uint256",
          "name": "deadline",
          "type": "uint256"
        },
        {
          "internalType": "uint256",
          "name": "flexers",
          "type": "uint256"
        }
      ],
      "stateMutability": "view",
      "type": "function"
    },
    {
      "inputs": [],
      "name": "initialATokenBalance",
      "outputs": [
        {
          "internalType": "uint256",
          "name": "",
          "type": "uint256"
        }
      ],
      "stateMutability": "view",
      "type": "function"
    },
    {
      "inputs": [],
      "name": "provider",
      "outputs": [
        {
          "internalType": "contract IPoolAddressesProvider",
          "name": "",
          "type": "address"
        }
      ],
      "stateMutability": "view",
      "type": "function"
    },
    {
      "inputs": [],
      "name": "usdcTokenAddress",
      "outputs": [
        {
          "internalType": "address",
          "name": "",
          "type": "address"
        }
      ],
      "stateMutability": "view",
      "type": "function"
    },
    {
      "inputs": [
        {
          "internalType": "uint256",
          "name": "amount",
          "type": "uint256"
        }
      ],
      "name": "withdraw",
      "outputs": [],
      "stateMutability": "nonpayable",
      "type": "function"
    }
  ],
  "transactionHash": "0x44f4664de75e33aa8ca1381e06e95299788bde0b7a09c3fc3b59863109614ac7",
  "args": [
    "0x036CbD53842c5426634e7929541eC2318f3dCF7e",
    "0xd449FeD49d9C443688d6816fE6872F21402e41de",
    1725926400,
    "Devcon Bangkok Trip",
    "Saving to attend DevCon 2024 in Bangkok",
    800000000,
    "0xf53B60F4006cab2b3C4688ce41fD5362427A2A66"
  ],
  "numDeployments": 9,
  "solcInputHash": "0101cead340fd77e9b787d011e128d0b",
  "bytecode": "0x60806040523480156200001157600080fd5b5060405162001e8f38038062001e8f8339818101604052810190620000379190620003ce565b600160008190555086600860006101000a81548173ffffffffffffffffffffffffffffffffffffffff021916908373ffffffffffffffffffffffffffffffffffffffff16021790555085600960006101000a81548173ffffffffffffffffffffffffffffffffffffffff021916908373ffffffffffffffffffffffffffffffffffffffff1602179055506040518060c001604052808581526020018481526020016000815260200183815260200186815260200160008152506002600082015181600001908162000109919062000700565b50602082015181600101908162000121919062000700565b5060408201518160020155606082015181600301556080820151816004015560a0820151816005015590505080600a60006101000a81548173ffffffffffffffffffffffffffffffffffffffff021916908373ffffffffffffffffffffffffffffffffffffffff16021790555050505050505050620007e7565b6000604051905090565b600080fd5b600080fd5b600073ffffffffffffffffffffffffffffffffffffffff82169050919050565b6000620001dc82620001af565b9050919050565b620001ee81620001cf565b8114620001fa57600080fd5b50565b6000815190506200020e81620001e3565b92915050565b6000819050919050565b620002298162000214565b81146200023557600080fd5b50565b60008151905062000249816200021e565b92915050565b600080fd5b600080fd5b6000601f19601f8301169050919050565b7f4e487b7100000000000000000000000000000000000000000000000000000000600052604160045260246000fd5b620002a48262000259565b810181811067ffffffffffffffff82111715620002c657620002c56200026a565b5b80604052505050565b6000620002db6200019b565b9050620002e9828262000299565b919050565b600067ffffffffffffffff8211156200030c576200030b6200026a565b5b620003178262000259565b9050602081019050919050565b60005b838110156200034457808201518184015260208101905062000327565b60008484015250505050565b6000620003676200036184620002ee565b620002cf565b90508281526020810184848401111562000386576200038562000254565b5b6200039384828562000324565b509392505050565b600082601f830112620003b357620003b26200024f565b5b8151620003c584826020860162000350565b91505092915050565b600080600080600080600060e0888a031215620003f057620003ef620001a5565b5b6000620004008a828b01620001fd565b9750506020620004138a828b01620001fd565b9650506040620004268a828b0162000238565b955050606088015167ffffffffffffffff8111156200044a5762000449620001aa565b5b620004588a828b016200039b565b945050608088015167ffffffffffffffff8111156200047c576200047b620001aa565b5b6200048a8a828b016200039b565b93505060a06200049d8a828b0162000238565b92505060c0620004b08a828b01620001fd565b91505092959891949750929550565b600081519050919050565b7f4e487b7100000000000000000000000000000000000000000000000000000000600052602260045260246000fd5b600060028204905060018216806200051257607f821691505b602082108103620005285762000527620004ca565b5b50919050565b60008190508160005260206000209050919050565b60006020601f8301049050919050565b600082821b905092915050565b600060088302620005927fffffffffffffffffffffffffffffffffffffffffffffffffffffffffffffffff8262000553565b6200059e868362000553565b95508019841693508086168417925050509392505050565b6000819050919050565b6000620005e1620005db620005d58462000214565b620005b6565b62000214565b9050919050565b6000819050919050565b620005fd83620005c0565b620006156200060c82620005e8565b84845462000560565b825550505050565b600090565b6200062c6200061d565b62000639818484620005f2565b505050565b5b8181101562000661576200065560008262000622565b6001810190506200063f565b5050565b601f821115620006b0576200067a816200052e565b620006858462000543565b8101602085101562000695578190505b620006ad620006a48562000543565b8301826200063e565b50505b505050565b600082821c905092915050565b6000620006d560001984600802620006b5565b1980831691505092915050565b6000620006f08383620006c2565b9150826002028217905092915050565b6200070b82620004bf565b67ffffffffffffffff8111156200072757620007266200026a565b5b620007338254620004f9565b6200074082828562000665565b600060209050601f83116001811462000778576000841562000763578287015190505b6200076f8582620006e2565b865550620007df565b601f19841662000788866200052e565b60005b82811015620007b2578489015182556001820191506020850194506020810190506200078b565b86831015620007d25784890151620007ce601f891682620006c2565b8355505b6001600288020188555050505b505050505050565b61169880620007f76000396000f3fe608060405234801561001057600080fd5b50600436106100b45760003560e01c806376f73cf31161007157806376f73cf31461018757806377b53ece146101a55780638234be5a146101c3578063a0c1f15e146101e1578063b6b55f25146101ff578063e45aa0981461021b576100b4565b8063085d4883146100b95780630efbf6d6146100d757806327e235e3146100f55780632e1a7d4d1461012557806336546779146101415780634019388314610164575b600080fd5b6100c161024b565b6040516100ce9190610f66565b60405180910390f35b6100df610271565b6040516100ec9190610f9a565b60405180910390f35b61010f600480360381019061010a9190610ff8565b610314565b60405161011c9190610f9a565b60405180910390f35b61013f600480360381019061013a9190611051565b61032c565b005b6101496105e9565b60405161015b9695949392919061110e565b60405180910390f35b61016c61073f565b60405161017e9695949392919061110e565b60405180910390f35b61018f610879565b60405161019c9190610f9a565b60405180910390f35b6101ad61087f565b6040516101ba919061118c565b60405180910390f35b6101cb6108a5565b6040516101d89190610f9a565b60405180910390f35b6101e961096b565b6040516101f691906111c8565b60405180910390f35b61021960048036038101906102149190611051565b610991565b005b61023560048036038101906102309190610ff8565b610d94565b6040516102429190610f9a565b60405180910390f35b600960009054906101000a900473ffffffffffffffffffffffffffffffffffffffff1681565b6000600a60009054906101000a900473ffffffffffffffffffffffffffffffffffffffff1673ffffffffffffffffffffffffffffffffffffffff166370a08231306040518263ffffffff1660e01b81526004016102ce919061118c565b602060405180830381865afa1580156102eb573d6000803e3d6000fd5b505050506040513d601f19601f8201168201806040525081019061030f91906111f8565b905090565b60016020528060005260406000206000915090505481565b610334610e97565b600061033f33610d94565b905081811015610384576040517f08c379a000000000000000000000000000000000000000000000000000000000815260040161037b90611271565b60405180910390fd5b6000600960009054906101000a900473ffffffffffffffffffffffffffffffffffffffff1673ffffffffffffffffffffffffffffffffffffffff1663026b1d5f6040518163ffffffff1660e01b8152600401602060405180830381865afa1580156103f3573d6000803e3d6000fd5b505050506040513d601f19601f8201168201806040525081019061041791906112a6565b90508073ffffffffffffffffffffffffffffffffffffffff166369328dec600860009054906101000a900473ffffffffffffffffffffffffffffffffffffffff1685306040518463ffffffff1660e01b8152600401610478939291906112d3565b6020604051808303816000875af1158015610497573d6000803e3d6000fd5b505050506040513d601f19601f820116820180604052508101906104bb91906111f8565b50600860009054906101000a900473ffffffffffffffffffffffffffffffffffffffff1673ffffffffffffffffffffffffffffffffffffffff1663a9059cbb33856040518363ffffffff1660e01b815260040161051992919061130a565b6020604051808303816000875af1158015610538573d6000803e3d6000fd5b505050506040513d601f19601f8201168201806040525081019061055c919061136b565b50828261056991906113c7565b600160003373ffffffffffffffffffffffffffffffffffffffff1673ffffffffffffffffffffffffffffffffffffffff16815260200190815260200160002081905550826002800160008282546105c091906113c7565b9250508190555060006002800154036105dc576000600b819055505b50506105e6610edd565b50565b60608060008060008060026000016002600101600280015460026003015460026004015460026005015485805461061f9061142a565b80601f016020809104026020016040519081016040528092919081815260200182805461064b9061142a565b80156106985780601f1061066d57610100808354040283529160200191610698565b820191906000526020600020905b81548152906001019060200180831161067b57829003601f168201915b505050505095508480546106ab9061142a565b80601f01602080910402602001604051908101604052809291908181526020018280546106d79061142a565b80156107245780601f106106f957610100808354040283529160200191610724565b820191906000526020600020905b81548152906001019060200180831161070757829003601f168201915b50505050509450955095509550955095509550909192939495565b60028060000180546107509061142a565b80601f016020809104026020016040519081016040528092919081815260200182805461077c9061142a565b80156107c95780601f1061079e576101008083540402835291602001916107c9565b820191906000526020600020905b8154815290600101906020018083116107ac57829003601f168201915b5050505050908060010180546107de9061142a565b80601f016020809104026020016040519081016040528092919081815260200182805461080a9061142a565b80156108575780601f1061082c57610100808354040283529160200191610857565b820191906000526020600020905b81548152906001019060200180831161083a57829003601f168201915b5050505050908060020154908060030154908060040154908060050154905086565b600b5481565b600860009054906101000a900473ffffffffffffffffffffffffffffffffffffffff1681565b600080600a60009054906101000a900473ffffffffffffffffffffffffffffffffffffffff1673ffffffffffffffffffffffffffffffffffffffff166370a08231306040518263ffffffff1660e01b8152600401610903919061118c565b602060405180830381865afa158015610920573d6000803e3d6000fd5b505050506040513d601f19601f8201168201806040525081019061094491906111f8565b9050600b548111610956576000610965565b600b548161096491906113c7565b5b91505090565b600a60009054906101000a900473ffffffffffffffffffffffffffffffffffffffff1681565b610999610e97565b60026004015442106109e0576040517f08c379a00000000000000000000000000000000000000000000000000000000081526004016109d7906114a7565b60405180910390fd5b600860009054906101000a900473ffffffffffffffffffffffffffffffffffffffff1673ffffffffffffffffffffffffffffffffffffffff166323b872dd3330846040518463ffffffff1660e01b8152600401610a3f939291906114c7565b6020604051808303816000875af1158015610a5e573d6000803e3d6000fd5b505050506040513d601f19601f82011682018060405250810190610a82919061136b565b5080600160003373ffffffffffffffffffffffffffffffffffffffff1673ffffffffffffffffffffffffffffffffffffffff1681526020019081526020016000206000828254610ad291906114fe565b9250508190555080600280016000828254610aed91906114fe565b92505081905550600160026005016000828254610b0a91906114fe565b925050819055506000600960009054906101000a900473ffffffffffffffffffffffffffffffffffffffff1673ffffffffffffffffffffffffffffffffffffffff1663026b1d5f6040518163ffffffff1660e01b8152600401602060405180830381865afa158015610b80573d6000803e3d6000fd5b505050506040513d601f19601f82011682018060405250810190610ba491906112a6565b9050600860009054906101000a900473ffffffffffffffffffffffffffffffffffffffff1673ffffffffffffffffffffffffffffffffffffffff1663095ea7b382846040518363ffffffff1660e01b8152600401610c0392919061130a565b6020604051808303816000875af1158015610c22573d6000803e3d6000fd5b505050506040513d601f19601f82011682018060405250810190610c46919061136b565b508073ffffffffffffffffffffffffffffffffffffffff1663617ba037600860009054906101000a900473ffffffffffffffffffffffffffffffffffffffff16843060006040518563ffffffff1660e01b8152600401610ca9949392919061157b565b600060405180830381600087803b158015610cc357600080fd5b505af1158015610cd7573d6000803e3d6000fd5b505050506000600b5403610d8857600a60009054906101000a900473ffffffffffffffffffffffffffffffffffffffff1673ffffffffffffffffffffffffffffffffffffffff166370a08231306040518263ffffffff1660e01b8152600401610d40919061118c565b602060405180830381865afa158015610d5d573d6000803e3d6000fd5b505050506040513d601f19601f82011682018060405250810190610d8191906111f8565b600b819055505b50610d91610edd565b50565b6000806002800154600a60009054906101000a900473ffffffffffffffffffffffffffffffffffffffff1673ffffffffffffffffffffffffffffffffffffffff166370a08231306040518263ffffffff1660e01b8152600401610df7919061118c565b602060405180830381865afa158015610e14573d6000803e3d6000fd5b505050506040513d601f19601f82011682018060405250810190610e3891906111f8565b600160008673ffffffffffffffffffffffffffffffffffffffff1673ffffffffffffffffffffffffffffffffffffffff16815260200190815260200160002054610e8291906115c0565b610e8c9190611631565b905080915050919050565b600260005403610ed3576040517f3ee5aeb500000000000000000000000000000000000000000000000000000000815260040160405180910390fd5b6002600081905550565b6001600081905550565b600073ffffffffffffffffffffffffffffffffffffffff82169050919050565b6000819050919050565b6000610f2c610f27610f2284610ee7565b610f07565b610ee7565b9050919050565b6000610f3e82610f11565b9050919050565b6000610f5082610f33565b9050919050565b610f6081610f45565b82525050565b6000602082019050610f7b6000830184610f57565b92915050565b6000819050919050565b610f9481610f81565b82525050565b6000602082019050610faf6000830184610f8b565b92915050565b600080fd5b6000610fc582610ee7565b9050919050565b610fd581610fba565b8114610fe057600080fd5b50565b600081359050610ff281610fcc565b92915050565b60006020828403121561100e5761100d610fb5565b5b600061101c84828501610fe3565b91505092915050565b61102e81610f81565b811461103957600080fd5b50565b60008135905061104b81611025565b92915050565b60006020828403121561106757611066610fb5565b5b60006110758482850161103c565b91505092915050565b600081519050919050565b600082825260208201905092915050565b60005b838110156110b857808201518184015260208101905061109d565b60008484015250505050565b6000601f19601f8301169050919050565b60006110e08261107e565b6110ea8185611089565b93506110fa81856020860161109a565b611103816110c4565b840191505092915050565b600060c082019050818103600083015261112881896110d5565b9050818103602083015261113c81886110d5565b905061114b6040830187610f8b565b6111586060830186610f8b565b6111656080830185610f8b565b61117260a0830184610f8b565b979650505050505050565b61118681610fba565b82525050565b60006020820190506111a1600083018461117d565b92915050565b60006111b282610f33565b9050919050565b6111c2816111a7565b82525050565b60006020820190506111dd60008301846111b9565b92915050565b6000815190506111f281611025565b92915050565b60006020828403121561120e5761120d610fb5565b5b600061121c848285016111e3565b91505092915050565b7f496e73756666696369656e742062616c616e6365000000000000000000000000600082015250565b600061125b601483611089565b915061126682611225565b602082019050919050565b6000602082019050818103600083015261128a8161124e565b9050919050565b6000815190506112a081610fcc565b92915050565b6000602082840312156112bc576112bb610fb5565b5b60006112ca84828501611291565b91505092915050565b60006060820190506112e8600083018661117d565b6112f56020830185610f8b565b611302604083018461117d565b949350505050565b600060408201905061131f600083018561117d565b61132c6020830184610f8b565b9392505050565b60008115159050919050565b61134881611333565b811461135357600080fd5b50565b6000815190506113658161133f565b92915050565b60006020828403121561138157611380610fb5565b5b600061138f84828501611356565b91505092915050565b7f4e487b7100000000000000000000000000000000000000000000000000000000600052601160045260246000fd5b60006113d282610f81565b91506113dd83610f81565b92508282039050818111156113f5576113f4611398565b5b92915050565b7f4e487b7100000000000000000000000000000000000000000000000000000000600052602260045260246000fd5b6000600282049050600182168061144257607f821691505b602082108103611455576114546113fb565b5b50919050565b7f54686520646561646c696e6520686173207061737365642e0000000000000000600082015250565b6000611491601883611089565b915061149c8261145b565b602082019050919050565b600060208201905081810360008301526114c081611484565b9050919050565b60006060820190506114dc600083018661117d565b6114e9602083018561117d565b6114f66040830184610f8b565b949350505050565b600061150982610f81565b915061151483610f81565b925082820190508082111561152c5761152b611398565b5b92915050565b6000819050919050565b600061ffff82169050919050565b600061156561156061155b84611532565b610f07565b61153c565b9050919050565b6115758161154a565b82525050565b6000608082019050611590600083018761117d565b61159d6020830186610f8b565b6115aa604083018561117d565b6115b7606083018461156c565b95945050505050565b60006115cb82610f81565b91506115d683610f81565b92508282026115e481610f81565b915082820484148315176115fb576115fa611398565b5b5092915050565b7f4e487b7100000000000000000000000000000000000000000000000000000000600052601260045260246000fd5b600061163c82610f81565b915061164783610f81565b92508261165757611656611602565b5b82820490509291505056fea264697066735822122073be87dd9c54df3a58e3e9a496552fa6ff06e1768813c0761919ac6b2767ddc864736f6c63430008140033",
  "devdoc": {
    "errors": {
      "ReentrancyGuardReentrantCall()": [
        {
          "details": "Unauthorized reentrant call."
        }
      ]
    },
    "kind": "dev",
    "methods": {},
    "version": 1
  },
  "userdoc": {
    "kind": "user",
    "methods": {},
    "version": 1
  },
  "storageLayout": {
    "storage": [
      {
        "astId": 1288,
        "contract": "contracts/Flexclub.sol:FlexClub",
        "label": "_status",
        "offset": 0,
        "slot": "0",
        "type": "t_uint256"
      },
      {
        "astId": 1374,
        "contract": "contracts/Flexclub.sol:FlexClub",
        "label": "balances",
        "offset": 0,
        "slot": "1",
        "type": "t_mapping(t_address,t_uint256)"
      },
      {
        "astId": 1377,
        "contract": "contracts/Flexclub.sol:FlexClub",
        "label": "goal",
        "offset": 0,
        "slot": "2",
        "type": "t_struct(Goal)1370_storage"
      },
      {
        "astId": 1379,
        "contract": "contracts/Flexclub.sol:FlexClub",
        "label": "usdcTokenAddress",
        "offset": 0,
        "slot": "8",
        "type": "t_address"
      },
      {
        "astId": 1382,
        "contract": "contracts/Flexclub.sol:FlexClub",
        "label": "provider",
        "offset": 0,
        "slot": "9",
        "type": "t_contract(IPoolAddressesProvider)925"
      },
      {
        "astId": 1385,
        "contract": "contracts/Flexclub.sol:FlexClub",
        "label": "aToken",
        "offset": 0,
        "slot": "10",
        "type": "t_contract(IERC20)77"
      },
      {
        "astId": 1387,
        "contract": "contracts/Flexclub.sol:FlexClub",
        "label": "initialATokenBalance",
        "offset": 0,
        "slot": "11",
        "type": "t_uint256"
      }
    ],
    "types": {
      "t_address": {
        "encoding": "inplace",
        "label": "address",
        "numberOfBytes": "20"
      },
      "t_contract(IERC20)77": {
        "encoding": "inplace",
        "label": "contract IERC20",
        "numberOfBytes": "20"
      },
      "t_contract(IPoolAddressesProvider)925": {
        "encoding": "inplace",
        "label": "contract IPoolAddressesProvider",
        "numberOfBytes": "20"
      },
      "t_mapping(t_address,t_uint256)": {
        "encoding": "mapping",
        "key": "t_address",
        "label": "mapping(address => uint256)",
        "numberOfBytes": "32",
        "value": "t_uint256"
      },
      "t_string_storage": {
        "encoding": "bytes",
        "label": "string",
        "numberOfBytes": "32"
      },
      "t_struct(Goal)1370_storage": {
        "encoding": "inplace",
        "label": "struct FlexClub.Goal",
        "members": [
          {
            "astId": 1359,
            "contract": "contracts/Flexclub.sol:FlexClub",
            "label": "name",
            "offset": 0,
            "slot": "0",
            "type": "t_string_storage"
          },
          {
            "astId": 1361,
            "contract": "contracts/Flexclub.sol:FlexClub",
            "label": "goal",
            "offset": 0,
            "slot": "1",
            "type": "t_string_storage"
          },
          {
            "astId": 1363,
            "contract": "contracts/Flexclub.sol:FlexClub",
            "label": "pooled",
            "offset": 0,
            "slot": "2",
            "type": "t_uint256"
          },
          {
            "astId": 1365,
            "contract": "contracts/Flexclub.sol:FlexClub",
            "label": "target",
            "offset": 0,
            "slot": "3",
            "type": "t_uint256"
          },
          {
            "astId": 1367,
            "contract": "contracts/Flexclub.sol:FlexClub",
            "label": "deadline",
            "offset": 0,
            "slot": "4",
            "type": "t_uint256"
          },
          {
            "astId": 1369,
            "contract": "contracts/Flexclub.sol:FlexClub",
            "label": "flexers",
            "offset": 0,
            "slot": "5",
            "type": "t_uint256"
          }
        ],
        "numberOfBytes": "192"
      },
      "t_uint256": {
        "encoding": "inplace",
        "label": "uint256",
        "numberOfBytes": "32"
      }
    }
  }
}