{
  "address": "0x0f9a03C60AF09e6502ba7f8b5Fb34e027A96264e",
  "abi": [
    {
      "inputs": [
        {
          "internalType": "address",
          "name": "_usdcTokenAddress",
          "type": "address"
        },
        {
          "internalType": "address",
          "name": "_provider",
          "type": "address"
        },
        {
          "internalType": "uint256",
          "name": "_deadline",
          "type": "uint256"
        },
        {
          "internalType": "string",
          "name": "goalName",
          "type": "string"
        },
        {
          "internalType": "string",
          "name": "goalDescription",
          "type": "string"
        },
        {
          "internalType": "uint256",
          "name": "targetAmount",
          "type": "uint256"
        },
        {
          "internalType": "address",
          "name": "_aTokenAddress",
          "type": "address"
        }
      ],
      "stateMutability": "nonpayable",
      "type": "constructor"
    },
    {
      "inputs": [],
      "name": "ReentrancyGuardReentrantCall",
      "type": "error"
    },
    {
      "anonymous": false,
      "inputs": [
        {
          "indexed": true,
          "internalType": "address",
          "name": "user",
          "type": "address"
        },
        {
          "indexed": false,
          "internalType": "uint256",
          "name": "amount",
          "type": "uint256"
        }
      ],
      "name": "Deposit",
      "type": "event"
    },
    {
      "anonymous": false,
      "inputs": [
        {
          "indexed": false,
          "internalType": "string",
          "name": "name",
          "type": "string"
        },
        {
          "indexed": false,
          "internalType": "string",
          "name": "goal",
          "type": "string"
        },
        {
          "indexed": false,
          "internalType": "uint256",
          "name": "pooled",
          "type": "uint256"
        },
        {
          "indexed": false,
          "internalType": "uint256",
          "name": "target",
          "type": "uint256"
        },
        {
          "indexed": false,
          "internalType": "uint256",
          "name": "deadline",
          "type": "uint256"
        },
        {
          "indexed": false,
          "internalType": "uint256",
          "name": "flexers",
          "type": "uint256"
        },
        {
          "indexed": false,
          "internalType": "uint256",
          "name": "pooledWithInterest",
          "type": "uint256"
        }
      ],
      "name": "GoalInfoUpdated",
      "type": "event"
    },
    {
      "anonymous": false,
      "inputs": [
        {
          "indexed": true,
          "internalType": "address",
          "name": "user",
          "type": "address"
        },
        {
          "indexed": false,
          "internalType": "uint256",
          "name": "amount",
          "type": "uint256"
        }
      ],
      "name": "Withdrawal",
      "type": "event"
    },
    {
      "inputs": [],
      "name": "aToken",
      "outputs": [
        {
          "internalType": "contract IERC20",
          "name": "",
          "type": "address"
        }
      ],
      "stateMutability": "view",
      "type": "function"
    },
    {
      "inputs": [
        {
          "internalType": "address",
          "name": "",
          "type": "address"
        }
      ],
      "name": "balanceWithoutInterest",
      "outputs": [
        {
          "internalType": "uint256",
          "name": "",
          "type": "uint256"
        }
      ],
      "stateMutability": "view",
      "type": "function"
    },
    {
      "inputs": [],
      "name": "checkInterestEarned",
      "outputs": [
        {
          "internalType": "uint256",
          "name": "",
          "type": "uint256"
        }
      ],
      "stateMutability": "view",
      "type": "function"
    },
    {
      "inputs": [
        {
          "internalType": "uint256",
          "name": "amount",
          "type": "uint256"
        }
      ],
      "name": "deposit",
      "outputs": [],
      "stateMutability": "nonpayable",
      "type": "function"
    },
    {
      "inputs": [
        {
          "internalType": "address",
          "name": "user",
          "type": "address"
        }
      ],
      "name": "getEffectiveBalance",
      "outputs": [
        {
          "internalType": "uint256",
          "name": "",
          "type": "uint256"
        }
      ],
      "stateMutability": "view",
      "type": "function"
    },
    {
      "inputs": [],
      "name": "getGoalInfo",
      "outputs": [
        {
          "internalType": "string",
          "name": "",
          "type": "string"
        },
        {
          "internalType": "string",
          "name": "",
          "type": "string"
        },
        {
          "internalType": "uint256",
          "name": "",
          "type": "uint256"
        },
        {
          "internalType": "uint256",
          "name": "",
          "type": "uint256"
        },
        {
          "internalType": "uint256",
          "name": "",
          "type": "uint256"
        },
        {
          "internalType": "uint256",
          "name": "",
          "type": "uint256"
        },
        {
          "internalType": "uint256",
          "name": "",
          "type": "uint256"
        }
      ],
      "stateMutability": "view",
      "type": "function"
    },
    {
      "inputs": [],
      "name": "goal",
      "outputs": [
        {
          "internalType": "string",
          "name": "name",
          "type": "string"
        },
        {
          "internalType": "string",
          "name": "goal",
          "type": "string"
        },
        {
          "internalType": "uint256",
          "name": "pooled",
          "type": "uint256"
        },
        {
          "internalType": "uint256",
          "name": "target",
          "type": "uint256"
        },
        {
          "internalType": "uint256",
          "name": "deadline",
          "type": "uint256"
        },
        {
          "internalType": "uint256",
          "name": "flexers",
          "type": "uint256"
        },
        {
          "internalType": "uint256",
          "name": "pooledWithInterest",
          "type": "uint256"
        }
      ],
      "stateMutability": "view",
      "type": "function"
    },
    {
      "inputs": [],
      "name": "initialATokenBalance",
      "outputs": [
        {
          "internalType": "uint256",
          "name": "",
          "type": "uint256"
        }
      ],
      "stateMutability": "view",
      "type": "function"
    },
    {
      "inputs": [],
      "name": "provider",
      "outputs": [
        {
          "internalType": "contract IPoolAddressesProvider",
          "name": "",
          "type": "address"
        }
      ],
      "stateMutability": "view",
      "type": "function"
    },
    {
      "inputs": [],
      "name": "usdcTokenAddress",
      "outputs": [
        {
          "internalType": "address",
          "name": "",
          "type": "address"
        }
      ],
      "stateMutability": "view",
      "type": "function"
    },
    {
      "inputs": [
        {
          "internalType": "uint256",
          "name": "amount",
          "type": "uint256"
        }
      ],
      "name": "withdraw",
      "outputs": [],
      "stateMutability": "nonpayable",
      "type": "function"
    }
  ],
  "transactionHash": "0x37b23b92503a79585a8cba87e72af590f7bdf19d5bd891a6ca8c0107bce25cfd",
  "args": [
    "0x036CbD53842c5426634e7929541eC2318f3dCF7e",
    "0xd449FeD49d9C443688d6816fE6872F21402e41de",
    1725926400,
    "Devcon Bangkok Trip",
    "Saving to attend DevCon 2024 in Bangkok",
    800000000,
    "0xf53B60F4006cab2b3C4688ce41fD5362427A2A66"
  ],
  "numDeployments": 10,
  "solcInputHash": "b6be48e7bdf7eec485354a5a9214742f",
  "bytecode": "0x60806040523480156200001157600080fd5b5060405162002195380380620021958339818101604052810190620000379190620003df565b600160008190555086600a60006101000a81548173ffffffffffffffffffffffffffffffffffffffff021916908373ffffffffffffffffffffffffffffffffffffffff16021790555085600b60006101000a81548173ffffffffffffffffffffffffffffffffffffffff021916908373ffffffffffffffffffffffffffffffffffffffff1602179055506040518060e00160405280858152602001848152602001600081526020018381526020018681526020016000815260200160008152506003600082015181600001908162000110919062000711565b50602082015181600101908162000128919062000711565b5060408201518160020155606082015181600301556080820151816004015560a0820151816005015560c0820151816006015590505080600c60006101000a81548173ffffffffffffffffffffffffffffffffffffffff021916908373ffffffffffffffffffffffffffffffffffffffff16021790555050505050505050620007f8565b6000604051905090565b600080fd5b600080fd5b600073ffffffffffffffffffffffffffffffffffffffff82169050919050565b6000620001ed82620001c0565b9050919050565b620001ff81620001e0565b81146200020b57600080fd5b50565b6000815190506200021f81620001f4565b92915050565b6000819050919050565b6200023a8162000225565b81146200024657600080fd5b50565b6000815190506200025a816200022f565b92915050565b600080fd5b600080fd5b6000601f19601f8301169050919050565b7f4e487b7100000000000000000000000000000000000000000000000000000000600052604160045260246000fd5b620002b5826200026a565b810181811067ffffffffffffffff82111715620002d757620002d66200027b565b5b80604052505050565b6000620002ec620001ac565b9050620002fa8282620002aa565b919050565b600067ffffffffffffffff8211156200031d576200031c6200027b565b5b62000328826200026a565b9050602081019050919050565b60005b838110156200035557808201518184015260208101905062000338565b60008484015250505050565b6000620003786200037284620002ff565b620002e0565b90508281526020810184848401111562000397576200039662000265565b5b620003a484828562000335565b509392505050565b600082601f830112620003c457620003c362000260565b5b8151620003d684826020860162000361565b91505092915050565b600080600080600080600060e0888a031215620004015762000400620001b6565b5b6000620004118a828b016200020e565b9750506020620004248a828b016200020e565b9650506040620004378a828b0162000249565b955050606088015167ffffffffffffffff8111156200045b576200045a620001bb565b5b620004698a828b01620003ac565b945050608088015167ffffffffffffffff8111156200048d576200048c620001bb565b5b6200049b8a828b01620003ac565b93505060a0620004ae8a828b0162000249565b92505060c0620004c18a828b016200020e565b91505092959891949750929550565b600081519050919050565b7f4e487b7100000000000000000000000000000000000000000000000000000000600052602260045260246000fd5b600060028204905060018216806200052357607f821691505b602082108103620005395762000538620004db565b5b50919050565b60008190508160005260206000209050919050565b60006020601f8301049050919050565b600082821b905092915050565b600060088302620005a37fffffffffffffffffffffffffffffffffffffffffffffffffffffffffffffffff8262000564565b620005af868362000564565b95508019841693508086168417925050509392505050565b6000819050919050565b6000620005f2620005ec620005e68462000225565b620005c7565b62000225565b9050919050565b6000819050919050565b6200060e83620005d1565b620006266200061d82620005f9565b84845462000571565b825550505050565b600090565b6200063d6200062e565b6200064a81848462000603565b505050565b5b8181101562000672576200066660008262000633565b60018101905062000650565b5050565b601f821115620006c1576200068b816200053f565b620006968462000554565b81016020851015620006a6578190505b620006be620006b58562000554565b8301826200064f565b50505b505050565b600082821c905092915050565b6000620006e660001984600802620006c6565b1980831691505092915050565b6000620007018383620006d3565b9150826002028217905092915050565b6200071c82620004d0565b67ffffffffffffffff8111156200073857620007376200027b565b5b6200074482546200050a565b6200075182828562000676565b600060209050601f83116001811462000789576000841562000774578287015190505b620007808582620006f3565b865550620007f0565b601f19841662000799866200053f565b60005b82811015620007c3578489015182556001820191506020850194506020810190506200079c565b86831015620007e35784890151620007df601f891682620006d3565b8355505b6001600288020188555050505b505050505050565b61198d80620008086000396000f3fe608060405234801561001057600080fd5b50600436106100a95760003560e01c80634019388311610071578063401938831461015a57806376f73cf31461017e57806377b53ece1461019c578063a0c1f15e146101ba578063b6b55f25146101d8578063e45aa098146101f4576100a9565b8063085d4883146100ae5780630efbf6d6146100cc5780632a6f8597146100ea5780632e1a7d4d1461011a5780633654677914610136575b600080fd5b6100b6610224565b6040516100c39190611137565b60405180910390f35b6100d461024a565b6040516100e1919061116b565b60405180910390f35b61010460048036038101906100ff91906111c9565b6102ed565b604051610111919061116b565b60405180910390f35b610134600480360381019061012f9190611222565b610305565b005b61013e61071a565b60405161015197969594939291906112df565b60405180910390f35b61016261087b565b60405161017597969594939291906112df565b60405180910390f35b6101866109bb565b604051610193919061116b565b60405180910390f35b6101a46109c1565b6040516101b1919061136b565b60405180910390f35b6101c26109e7565b6040516101cf91906113a7565b60405180910390f35b6101f260048036038101906101ed9190611222565b610a0d565b005b61020e600480360381019061020991906111c9565b610f64565b60405161021b919061116b565b60405180910390f35b600b60009054906101000a900473ffffffffffffffffffffffffffffffffffffffff1681565b6000600c60009054906101000a900473ffffffffffffffffffffffffffffffffffffffff1673ffffffffffffffffffffffffffffffffffffffff166370a08231306040518263ffffffff1660e01b81526004016102a7919061136b565b602060405180830381865afa1580156102c4573d6000803e3d6000fd5b505050506040513d601f19601f820116820180604052508101906102e891906113d7565b905090565b60016020528060005260406000206000915090505481565b61030d611068565b600061031833610f64565b90508181101561035d576040517f08c379a000000000000000000000000000000000000000000000000000000000815260040161035490611450565b60405180910390fd5b6000600b60009054906101000a900473ffffffffffffffffffffffffffffffffffffffff1673ffffffffffffffffffffffffffffffffffffffff1663026b1d5f6040518163ffffffff1660e01b8152600401602060405180830381865afa1580156103cc573d6000803e3d6000fd5b505050506040513d601f19601f820116820180604052508101906103f09190611485565b90508073ffffffffffffffffffffffffffffffffffffffff166369328dec600a60009054906101000a900473ffffffffffffffffffffffffffffffffffffffff1685306040518463ffffffff1660e01b8152600401610451939291906114b2565b6020604051808303816000875af1158015610470573d6000803e3d6000fd5b505050506040513d601f19601f8201168201806040525081019061049491906113d7565b50600a60009054906101000a900473ffffffffffffffffffffffffffffffffffffffff1673ffffffffffffffffffffffffffffffffffffffff1663a9059cbb33856040518363ffffffff1660e01b81526004016104f29291906114e9565b6020604051808303816000875af1158015610511573d6000803e3d6000fd5b505050506040513d601f19601f82011682018060405250810190610535919061154a565b50828261054291906115a6565b600160003373ffffffffffffffffffffffffffffffffffffffff1673ffffffffffffffffffffffffffffffffffffffff16815260200190815260200160002081905550826003600201600082825461059a91906115a6565b92505081905550600c60009054906101000a900473ffffffffffffffffffffffffffffffffffffffff1673ffffffffffffffffffffffffffffffffffffffff166370a08231306040518263ffffffff1660e01b81526004016105fc919061136b565b602060405180830381865afa158015610619573d6000803e3d6000fd5b505050506040513d601f19601f8201168201806040525081019061063d91906113d7565b60036006018190555060006003600201540361065c576000600d819055505b3373ffffffffffffffffffffffffffffffffffffffff167f7fcf532c15f0a6db0bd6d0e038bea71d30d808c7d98cb3bf7268a95bf5081b65846040516106a2919061116b565b60405180910390a27f2d0cc23f1e584d353d33144d819c1d440ce41eaad30e89b8ccdfc94c43239d0e60036000016003600101600360020154600380015460036004015460036005015460036006015460405161070597969594939291906116d3565b60405180910390a150506107176110ae565b50565b606080600080600080600060036000016003600101600360020154600380015460036004015460036005015460036006015486805461075890611609565b80601f016020809104026020016040519081016040528092919081815260200182805461078490611609565b80156107d15780601f106107a6576101008083540402835291602001916107d1565b820191906000526020600020905b8154815290600101906020018083116107b457829003601f168201915b505050505096508580546107e490611609565b80601f016020809104026020016040519081016040528092919081815260200182805461081090611609565b801561085d5780601f106108325761010080835404028352916020019161085d565b820191906000526020600020905b81548152906001019060200180831161084057829003601f168201915b50505050509550965096509650965096509650965090919293949596565b600380600001805461088c90611609565b80601f01602080910402602001604051908101604052809291908181526020018280546108b890611609565b80156109055780601f106108da57610100808354040283529160200191610905565b820191906000526020600020905b8154815290600101906020018083116108e857829003601f168201915b50505050509080600101805461091a90611609565b80601f016020809104026020016040519081016040528092919081815260200182805461094690611609565b80156109935780601f1061096857610100808354040283529160200191610993565b820191906000526020600020905b81548152906001019060200180831161097657829003601f168201915b5050505050908060020154908060030154908060040154908060050154908060060154905087565b600d5481565b600a60009054906101000a900473ffffffffffffffffffffffffffffffffffffffff1681565b600c60009054906101000a900473ffffffffffffffffffffffffffffffffffffffff1681565b610a15611068565b6003600401544210610a5c576040517f08c379a0000000000000000000000000000000000000000000000000000000008152600401610a539061179c565b60405180910390fd5b600a60009054906101000a900473ffffffffffffffffffffffffffffffffffffffff1673ffffffffffffffffffffffffffffffffffffffff166323b872dd3330846040518463ffffffff1660e01b8152600401610abb939291906117bc565b6020604051808303816000875af1158015610ada573d6000803e3d6000fd5b505050506040513d601f19601f82011682018060405250810190610afe919061154a565b5080600160003373ffffffffffffffffffffffffffffffffffffffff1673ffffffffffffffffffffffffffffffffffffffff1681526020019081526020016000206000828254610b4e91906117f3565b925050819055508060036002016000828254610b6a91906117f3565b92505081905550600260003373ffffffffffffffffffffffffffffffffffffffff1673ffffffffffffffffffffffffffffffffffffffff16815260200190815260200160002060009054906101000a900460ff16610c38576001600260003373ffffffffffffffffffffffffffffffffffffffff1673ffffffffffffffffffffffffffffffffffffffff16815260200190815260200160002060006101000a81548160ff021916908315150217905550600160036005016000828254610c3091906117f3565b925050819055505b6000600b60009054906101000a900473ffffffffffffffffffffffffffffffffffffffff1673ffffffffffffffffffffffffffffffffffffffff1663026b1d5f6040518163ffffffff1660e01b8152600401602060405180830381865afa158015610ca7573d6000803e3d6000fd5b505050506040513d601f19601f82011682018060405250810190610ccb9190611485565b9050600a60009054906101000a900473ffffffffffffffffffffffffffffffffffffffff1673ffffffffffffffffffffffffffffffffffffffff1663095ea7b382846040518363ffffffff1660e01b8152600401610d2a9291906114e9565b6020604051808303816000875af1158015610d49573d6000803e3d6000fd5b505050506040513d601f19601f82011682018060405250810190610d6d919061154a565b508073ffffffffffffffffffffffffffffffffffffffff1663617ba037600a60009054906101000a900473ffffffffffffffffffffffffffffffffffffffff16843060006040518563ffffffff1660e01b8152600401610dd09493929190611870565b600060405180830381600087803b158015610dea57600080fd5b505af1158015610dfe573d6000803e3d6000fd5b50505050600c60009054906101000a900473ffffffffffffffffffffffffffffffffffffffff1673ffffffffffffffffffffffffffffffffffffffff166370a08231306040518263ffffffff1660e01b8152600401610e5d919061136b565b602060405180830381865afa158015610e7a573d6000803e3d6000fd5b505050506040513d601f19601f82011682018060405250810190610e9e91906113d7565b6003600601819055503373ffffffffffffffffffffffffffffffffffffffff167fe1fffcc4923d04b559f4d29a8bfc6cda04eb5b0d3c460751c2402c5c5cc9109c83604051610eed919061116b565b60405180910390a27f2d0cc23f1e584d353d33144d819c1d440ce41eaad30e89b8ccdfc94c43239d0e600360000160036001016003600201546003800154600360040154600360050154600360060154604051610f5097969594939291906116d3565b60405180910390a150610f616110ae565b50565b600080600360020154600c60009054906101000a900473ffffffffffffffffffffffffffffffffffffffff1673ffffffffffffffffffffffffffffffffffffffff166370a08231306040518263ffffffff1660e01b8152600401610fc8919061136b565b602060405180830381865afa158015610fe5573d6000803e3d6000fd5b505050506040513d601f19601f8201168201806040525081019061100991906113d7565b600160008673ffffffffffffffffffffffffffffffffffffffff1673ffffffffffffffffffffffffffffffffffffffff1681526020019081526020016000205461105391906118b5565b61105d9190611926565b905080915050919050565b6002600054036110a4576040517f3ee5aeb500000000000000000000000000000000000000000000000000000000815260040160405180910390fd5b6002600081905550565b6001600081905550565b600073ffffffffffffffffffffffffffffffffffffffff82169050919050565b6000819050919050565b60006110fd6110f86110f3846110b8565b6110d8565b6110b8565b9050919050565b600061110f826110e2565b9050919050565b600061112182611104565b9050919050565b61113181611116565b82525050565b600060208201905061114c6000830184611128565b92915050565b6000819050919050565b61116581611152565b82525050565b6000602082019050611180600083018461115c565b92915050565b600080fd5b6000611196826110b8565b9050919050565b6111a68161118b565b81146111b157600080fd5b50565b6000813590506111c38161119d565b92915050565b6000602082840312156111df576111de611186565b5b60006111ed848285016111b4565b91505092915050565b6111ff81611152565b811461120a57600080fd5b50565b60008135905061121c816111f6565b92915050565b60006020828403121561123857611237611186565b5b60006112468482850161120d565b91505092915050565b600081519050919050565b600082825260208201905092915050565b60005b8381101561128957808201518184015260208101905061126e565b60008484015250505050565b6000601f19601f8301169050919050565b60006112b18261124f565b6112bb818561125a565b93506112cb81856020860161126b565b6112d481611295565b840191505092915050565b600060e08201905081810360008301526112f9818a6112a6565b9050818103602083015261130d81896112a6565b905061131c604083018861115c565b611329606083018761115c565b611336608083018661115c565b61134360a083018561115c565b61135060c083018461115c565b98975050505050505050565b6113658161118b565b82525050565b6000602082019050611380600083018461135c565b92915050565b600061139182611104565b9050919050565b6113a181611386565b82525050565b60006020820190506113bc6000830184611398565b92915050565b6000815190506113d1816111f6565b92915050565b6000602082840312156113ed576113ec611186565b5b60006113fb848285016113c2565b91505092915050565b7f496e73756666696369656e742062616c616e6365000000000000000000000000600082015250565b600061143a60148361125a565b915061144582611404565b602082019050919050565b600060208201905081810360008301526114698161142d565b9050919050565b60008151905061147f8161119d565b92915050565b60006020828403121561149b5761149a611186565b5b60006114a984828501611470565b91505092915050565b60006060820190506114c7600083018661135c565b6114d4602083018561115c565b6114e1604083018461135c565b949350505050565b60006040820190506114fe600083018561135c565b61150b602083018461115c565b9392505050565b60008115159050919050565b61152781611512565b811461153257600080fd5b50565b6000815190506115448161151e565b92915050565b6000602082840312156115605761155f611186565b5b600061156e84828501611535565b91505092915050565b7f4e487b7100000000000000000000000000000000000000000000000000000000600052601160045260246000fd5b60006115b182611152565b91506115bc83611152565b92508282039050818111156115d4576115d3611577565b5b92915050565b7f4e487b7100000000000000000000000000000000000000000000000000000000600052602260045260246000fd5b6000600282049050600182168061162157607f821691505b602082108103611634576116336115da565b5b50919050565b60008190508160005260206000209050919050565b6000815461165c81611609565b611666818661125a565b945060018216600081146116815760018114611697576116ca565b60ff1983168652811515602002860193506116ca565b6116a08561163a565b60005b838110156116c2578154818901526001820191506020810190506116a3565b808801955050505b50505092915050565b600060e08201905081810360008301526116ed818a61164f565b90508181036020830152611701818961164f565b9050611710604083018861115c565b61171d606083018761115c565b61172a608083018661115c565b61173760a083018561115c565b61174460c083018461115c565b98975050505050505050565b7f54686520646561646c696e6520686173207061737365642e0000000000000000600082015250565b600061178660188361125a565b915061179182611750565b602082019050919050565b600060208201905081810360008301526117b581611779565b9050919050565b60006060820190506117d1600083018661135c565b6117de602083018561135c565b6117eb604083018461115c565b949350505050565b60006117fe82611152565b915061180983611152565b925082820190508082111561182157611820611577565b5b92915050565b6000819050919050565b600061ffff82169050919050565b600061185a61185561185084611827565b6110d8565b611831565b9050919050565b61186a8161183f565b82525050565b6000608082019050611885600083018761135c565b611892602083018661115c565b61189f604083018561135c565b6118ac6060830184611861565b95945050505050565b60006118c082611152565b91506118cb83611152565b92508282026118d981611152565b915082820484148315176118f0576118ef611577565b5b5092915050565b7f4e487b7100000000000000000000000000000000000000000000000000000000600052601260045260246000fd5b600061193182611152565b915061193c83611152565b92508261194c5761194b6118f7565b5b82820490509291505056fea2646970667358221220e480f9f8187775b2480ac2d06b1cb1000111b09675779e516d892cdccea5c2df64736f6c63430008140033",
  "devdoc": {
    "errors": {
      "ReentrancyGuardReentrantCall()": [
        {
          "details": "Unauthorized reentrant call."
        }
      ]
    },
    "kind": "dev",
    "methods": {},
    "version": 1
  },
  "userdoc": {
    "kind": "user",
    "methods": {},
    "version": 1
  },
  "storageLayout": {
    "storage": [
      {
        "astId": 1288,
        "contract": "contracts/Flexclub.sol:FlexClub",
        "label": "_status",
        "offset": 0,
        "slot": "0",
        "type": "t_uint256"
      },
      {
        "astId": 1376,
        "contract": "contracts/Flexclub.sol:FlexClub",
        "label": "balanceWithoutInterest",
        "offset": 0,
        "slot": "1",
        "type": "t_mapping(t_address,t_uint256)"
      },
      {
        "astId": 1380,
        "contract": "contracts/Flexclub.sol:FlexClub",
        "label": "hasDeposited",
        "offset": 0,
        "slot": "2",
        "type": "t_mapping(t_address,t_bool)"
      },
      {
        "astId": 1383,
        "contract": "contracts/Flexclub.sol:FlexClub",
        "label": "goal",
        "offset": 0,
        "slot": "3",
        "type": "t_struct(Goal)1372_storage"
      },
      {
        "astId": 1385,
        "contract": "contracts/Flexclub.sol:FlexClub",
        "label": "usdcTokenAddress",
        "offset": 0,
        "slot": "10",
        "type": "t_address"
      },
      {
        "astId": 1388,
        "contract": "contracts/Flexclub.sol:FlexClub",
        "label": "provider",
        "offset": 0,
        "slot": "11",
        "type": "t_contract(IPoolAddressesProvider)925"
      },
      {
        "astId": 1391,
        "contract": "contracts/Flexclub.sol:FlexClub",
        "label": "aToken",
        "offset": 0,
        "slot": "12",
        "type": "t_contract(IERC20)77"
      },
      {
        "astId": 1393,
        "contract": "contracts/Flexclub.sol:FlexClub",
        "label": "initialATokenBalance",
        "offset": 0,
        "slot": "13",
        "type": "t_uint256"
      }
    ],
    "types": {
      "t_address": {
        "encoding": "inplace",
        "label": "address",
        "numberOfBytes": "20"
      },
      "t_bool": {
        "encoding": "inplace",
        "label": "bool",
        "numberOfBytes": "1"
      },
      "t_contract(IERC20)77": {
        "encoding": "inplace",
        "label": "contract IERC20",
        "numberOfBytes": "20"
      },
      "t_contract(IPoolAddressesProvider)925": {
        "encoding": "inplace",
        "label": "contract IPoolAddressesProvider",
        "numberOfBytes": "20"
      },
      "t_mapping(t_address,t_bool)": {
        "encoding": "mapping",
        "key": "t_address",
        "label": "mapping(address => bool)",
        "numberOfBytes": "32",
        "value": "t_bool"
      },
      "t_mapping(t_address,t_uint256)": {
        "encoding": "mapping",
        "key": "t_address",
        "label": "mapping(address => uint256)",
        "numberOfBytes": "32",
        "value": "t_uint256"
      },
      "t_string_storage": {
        "encoding": "bytes",
        "label": "string",
        "numberOfBytes": "32"
      },
      "t_struct(Goal)1372_storage": {
        "encoding": "inplace",
        "label": "struct FlexClub.Goal",
        "members": [
          {
            "astId": 1359,
            "contract": "contracts/Flexclub.sol:FlexClub",
            "label": "name",
            "offset": 0,
            "slot": "0",
            "type": "t_string_storage"
          },
          {
            "astId": 1361,
            "contract": "contracts/Flexclub.sol:FlexClub",
            "label": "goal",
            "offset": 0,
            "slot": "1",
            "type": "t_string_storage"
          },
          {
            "astId": 1363,
            "contract": "contracts/Flexclub.sol:FlexClub",
            "label": "pooled",
            "offset": 0,
            "slot": "2",
            "type": "t_uint256"
          },
          {
            "astId": 1365,
            "contract": "contracts/Flexclub.sol:FlexClub",
            "label": "target",
            "offset": 0,
            "slot": "3",
            "type": "t_uint256"
          },
          {
            "astId": 1367,
            "contract": "contracts/Flexclub.sol:FlexClub",
            "label": "deadline",
            "offset": 0,
            "slot": "4",
            "type": "t_uint256"
          },
          {
            "astId": 1369,
            "contract": "contracts/Flexclub.sol:FlexClub",
            "label": "flexers",
            "offset": 0,
            "slot": "5",
            "type": "t_uint256"
          },
          {
            "astId": 1371,
            "contract": "contracts/Flexclub.sol:FlexClub",
            "label": "pooledWithInterest",
            "offset": 0,
            "slot": "6",
            "type": "t_uint256"
          }
        ],
        "numberOfBytes": "224"
      },
      "t_uint256": {
        "encoding": "inplace",
        "label": "uint256",
        "numberOfBytes": "32"
      }
    }
  }
}