{
  "address": "0x58eAAe61d5c549d8A4cEB88ac58a296dBb19B3C5",
  "abi": [
    {
      "inputs": [],
      "stateMutability": "nonpayable",
      "type": "constructor"
    },
    {
      "inputs": [],
      "name": "CheckpointUnorderedInsertion",
      "type": "error"
    },
    {
      "inputs": [],
      "name": "ECDSAInvalidSignature",
      "type": "error"
    },
    {
      "inputs": [
        {
          "internalType": "uint256",
          "name": "length",
          "type": "uint256"
        }
      ],
      "name": "ECDSAInvalidSignatureLength",
      "type": "error"
    },
    {
      "inputs": [
        {
          "internalType": "bytes32",
          "name": "s",
          "type": "bytes32"
        }
      ],
      "name": "ECDSAInvalidSignatureS",
      "type": "error"
    },
    {
      "inputs": [
        {
          "internalType": "uint256",
          "name": "increasedSupply",
          "type": "uint256"
        },
        {
          "internalType": "uint256",
          "name": "cap",
          "type": "uint256"
        }
      ],
      "name": "ERC20ExceededSafeSupply",
      "type": "error"
    },
    {
      "inputs": [
        {
          "internalType": "address",
          "name": "spender",
          "type": "address"
        },
        {
          "internalType": "uint256",
          "name": "allowance",
          "type": "uint256"
        },
        {
          "internalType": "uint256",
          "name": "needed",
          "type": "uint256"
        }
      ],
      "name": "ERC20InsufficientAllowance",
      "type": "error"
    },
    {
      "inputs": [
        {
          "internalType": "address",
          "name": "sender",
          "type": "address"
        },
        {
          "internalType": "uint256",
          "name": "balance",
          "type": "uint256"
        },
        {
          "internalType": "uint256",
          "name": "needed",
          "type": "uint256"
        }
      ],
      "name": "ERC20InsufficientBalance",
      "type": "error"
    },
    {
      "inputs": [
        {
          "internalType": "address",
          "name": "approver",
          "type": "address"
        }
      ],
      "name": "ERC20InvalidApprover",
      "type": "error"
    },
    {
      "inputs": [
        {
          "internalType": "address",
          "name": "receiver",
          "type": "address"
        }
      ],
      "name": "ERC20InvalidReceiver",
      "type": "error"
    },
    {
      "inputs": [
        {
          "internalType": "address",
          "name": "sender",
          "type": "address"
        }
      ],
      "name": "ERC20InvalidSender",
      "type": "error"
    },
    {
      "inputs": [
        {
          "internalType": "address",
          "name": "spender",
          "type": "address"
        }
      ],
      "name": "ERC20InvalidSpender",
      "type": "error"
    },
    {
      "inputs": [
        {
          "internalType": "uint256",
          "name": "deadline",
          "type": "uint256"
        }
      ],
      "name": "ERC2612ExpiredSignature",
      "type": "error"
    },
    {
      "inputs": [
        {
          "internalType": "address",
          "name": "signer",
          "type": "address"
        },
        {
          "internalType": "address",
          "name": "owner",
          "type": "address"
        }
      ],
      "name": "ERC2612InvalidSigner",
      "type": "error"
    },
    {
      "inputs": [
        {
          "internalType": "uint256",
          "name": "timepoint",
          "type": "uint256"
        },
        {
          "internalType": "uint48",
          "name": "clock",
          "type": "uint48"
        }
      ],
      "name": "ERC5805FutureLookup",
      "type": "error"
    },
    {
      "inputs": [],
      "name": "ERC6372InconsistentClock",
      "type": "error"
    },
    {
      "inputs": [
        {
          "internalType": "address",
          "name": "account",
          "type": "address"
        },
        {
          "internalType": "uint256",
          "name": "currentNonce",
          "type": "uint256"
        }
      ],
      "name": "InvalidAccountNonce",
      "type": "error"
    },
    {
      "inputs": [],
      "name": "InvalidShortString",
      "type": "error"
    },
    {
      "inputs": [
        {
          "internalType": "address",
          "name": "owner",
          "type": "address"
        }
      ],
      "name": "OwnableInvalidOwner",
      "type": "error"
    },
    {
      "inputs": [
        {
          "internalType": "address",
          "name": "account",
          "type": "address"
        }
      ],
      "name": "OwnableUnauthorizedAccount",
      "type": "error"
    },
    {
      "inputs": [
        {
          "internalType": "uint8",
          "name": "bits",
          "type": "uint8"
        },
        {
          "internalType": "uint256",
          "name": "value",
          "type": "uint256"
        }
      ],
      "name": "SafeCastOverflowedUintDowncast",
      "type": "error"
    },
    {
      "inputs": [
        {
          "internalType": "string",
          "name": "str",
          "type": "string"
        }
      ],
      "name": "StringTooLong",
      "type": "error"
    },
    {
      "inputs": [
        {
          "internalType": "uint256",
          "name": "expiry",
          "type": "uint256"
        }
      ],
      "name": "VotesExpiredSignature",
      "type": "error"
    },
    {
      "anonymous": false,
      "inputs": [
        {
          "indexed": true,
          "internalType": "address",
          "name": "owner",
          "type": "address"
        },
        {
          "indexed": true,
          "internalType": "address",
          "name": "spender",
          "type": "address"
        },
        {
          "indexed": false,
          "internalType": "uint256",
          "name": "value",
          "type": "uint256"
        }
      ],
      "name": "Approval",
      "type": "event"
    },
    {
      "anonymous": false,
      "inputs": [
        {
          "indexed": true,
          "internalType": "address",
          "name": "delegator",
          "type": "address"
        },
        {
          "indexed": true,
          "internalType": "address",
          "name": "fromDelegate",
          "type": "address"
        },
        {
          "indexed": true,
          "internalType": "address",
          "name": "toDelegate",
          "type": "address"
        }
      ],
      "name": "DelegateChanged",
      "type": "event"
    },
    {
      "anonymous": false,
      "inputs": [
        {
          "indexed": true,
          "internalType": "address",
          "name": "delegate",
          "type": "address"
        },
        {
          "indexed": false,
          "internalType": "uint256",
          "name": "previousVotes",
          "type": "uint256"
        },
        {
          "indexed": false,
          "internalType": "uint256",
          "name": "newVotes",
          "type": "uint256"
        }
      ],
      "name": "DelegateVotesChanged",
      "type": "event"
    },
    {
      "anonymous": false,
      "inputs": [],
      "name": "EIP712DomainChanged",
      "type": "event"
    },
    {
      "anonymous": false,
      "inputs": [
        {
          "indexed": true,
          "internalType": "address",
          "name": "previousOwner",
          "type": "address"
        },
        {
          "indexed": true,
          "internalType": "address",
          "name": "newOwner",
          "type": "address"
        }
      ],
      "name": "OwnershipTransferred",
      "type": "event"
    },
    {
      "anonymous": false,
      "inputs": [
        {
          "indexed": true,
          "internalType": "address",
          "name": "from",
          "type": "address"
        },
        {
          "indexed": true,
          "internalType": "address",
          "name": "to",
          "type": "address"
        },
        {
          "indexed": false,
          "internalType": "uint256",
          "name": "value",
          "type": "uint256"
        }
      ],
      "name": "Transfer",
      "type": "event"
    },
    {
      "inputs": [],
      "name": "CLOCK_MODE",
      "outputs": [
        {
          "internalType": "string",
          "name": "",
          "type": "string"
        }
      ],
      "stateMutability": "view",
      "type": "function"
    },
    {
      "inputs": [],
      "name": "DOMAIN_SEPARATOR",
      "outputs": [
        {
          "internalType": "bytes32",
          "name": "",
          "type": "bytes32"
        }
      ],
      "stateMutability": "view",
      "type": "function"
    },
    {
      "inputs": [],
      "name": "TOKEN_INITIAL_SUPPLY",
      "outputs": [
        {
          "internalType": "uint256",
          "name": "",
          "type": "uint256"
        }
      ],
      "stateMutability": "view",
      "type": "function"
    },
    {
      "inputs": [],
      "name": "TOKEN_NAME",
      "outputs": [
        {
          "internalType": "string",
          "name": "",
          "type": "string"
        }
      ],
      "stateMutability": "view",
      "type": "function"
    },
    {
      "inputs": [],
      "name": "TOKEN_SYMBOL",
      "outputs": [
        {
          "internalType": "string",
          "name": "",
          "type": "string"
        }
      ],
      "stateMutability": "view",
      "type": "function"
    },
    {
      "inputs": [
        {
          "internalType": "address",
          "name": "owner",
          "type": "address"
        },
        {
          "internalType": "address",
          "name": "spender",
          "type": "address"
        }
      ],
      "name": "allowance",
      "outputs": [
        {
          "internalType": "uint256",
          "name": "",
          "type": "uint256"
        }
      ],
      "stateMutability": "view",
      "type": "function"
    },
    {
      "inputs": [
        {
          "internalType": "address",
          "name": "spender",
          "type": "address"
        },
        {
          "internalType": "uint256",
          "name": "value",
          "type": "uint256"
        }
      ],
      "name": "approve",
      "outputs": [
        {
          "internalType": "bool",
          "name": "",
          "type": "bool"
        }
      ],
      "stateMutability": "nonpayable",
      "type": "function"
    },
    {
      "inputs": [
        {
          "internalType": "address",
          "name": "account",
          "type": "address"
        }
      ],
      "name": "balanceOf",
      "outputs": [
        {
          "internalType": "uint256",
          "name": "",
          "type": "uint256"
        }
      ],
      "stateMutability": "view",
      "type": "function"
    },
    {
      "inputs": [
        {
          "internalType": "uint256",
          "name": "value",
          "type": "uint256"
        }
      ],
      "name": "burn",
      "outputs": [],
      "stateMutability": "nonpayable",
      "type": "function"
    },
    {
      "inputs": [
        {
          "internalType": "address",
          "name": "account",
          "type": "address"
        },
        {
          "internalType": "uint256",
          "name": "value",
          "type": "uint256"
        }
      ],
      "name": "burnFrom",
      "outputs": [],
      "stateMutability": "nonpayable",
      "type": "function"
    },
    {
      "inputs": [
        {
          "internalType": "address",
          "name": "account",
          "type": "address"
        },
        {
          "internalType": "uint32",
          "name": "pos",
          "type": "uint32"
        }
      ],
      "name": "checkpoints",
      "outputs": [
        {
          "components": [
            {
              "internalType": "uint48",
              "name": "_key",
              "type": "uint48"
            },
            {
              "internalType": "uint208",
              "name": "_value",
              "type": "uint208"
            }
          ],
          "internalType": "struct Checkpoints.Checkpoint208",
          "name": "",
          "type": "tuple"
        }
      ],
      "stateMutability": "view",
      "type": "function"
    },
    {
      "inputs": [],
      "name": "clock",
      "outputs": [
        {
          "internalType": "uint48",
          "name": "",
          "type": "uint48"
        }
      ],
      "stateMutability": "view",
      "type": "function"
    },
    {
      "inputs": [],
      "name": "decimals",
      "outputs": [
        {
          "internalType": "uint8",
          "name": "",
          "type": "uint8"
        }
      ],
      "stateMutability": "view",
      "type": "function"
    },
    {
      "inputs": [
        {
          "internalType": "address",
          "name": "delegatee",
          "type": "address"
        }
      ],
      "name": "delegate",
      "outputs": [],
      "stateMutability": "nonpayable",
      "type": "function"
    },
    {
      "inputs": [
        {
          "internalType": "address",
          "name": "delegatee",
          "type": "address"
        },
        {
          "internalType": "uint256",
          "name": "nonce",
          "type": "uint256"
        },
        {
          "internalType": "uint256",
          "name": "expiry",
          "type": "uint256"
        },
        {
          "internalType": "uint8",
          "name": "v",
          "type": "uint8"
        },
        {
          "internalType": "bytes32",
          "name": "r",
          "type": "bytes32"
        },
        {
          "internalType": "bytes32",
          "name": "s",
          "type": "bytes32"
        }
      ],
      "name": "delegateBySig",
      "outputs": [],
      "stateMutability": "nonpayable",
      "type": "function"
    },
    {
      "inputs": [
        {
          "internalType": "address",
          "name": "account",
          "type": "address"
        }
      ],
      "name": "delegates",
      "outputs": [
        {
          "internalType": "address",
          "name": "",
          "type": "address"
        }
      ],
      "stateMutability": "view",
      "type": "function"
    },
    {
      "inputs": [],
      "name": "eip712Domain",
      "outputs": [
        {
          "internalType": "bytes1",
          "name": "fields",
          "type": "bytes1"
        },
        {
          "internalType": "string",
          "name": "name",
          "type": "string"
        },
        {
          "internalType": "string",
          "name": "version",
          "type": "string"
        },
        {
          "internalType": "uint256",
          "name": "chainId",
          "type": "uint256"
        },
        {
          "internalType": "address",
          "name": "verifyingContract",
          "type": "address"
        },
        {
          "internalType": "bytes32",
          "name": "salt",
          "type": "bytes32"
        },
        {
          "internalType": "uint256[]",
          "name": "extensions",
          "type": "uint256[]"
        }
      ],
      "stateMutability": "view",
      "type": "function"
    },
    {
      "inputs": [
        {
          "internalType": "uint256",
          "name": "timepoint",
          "type": "uint256"
        }
      ],
      "name": "getPastTotalSupply",
      "outputs": [
        {
          "internalType": "uint256",
          "name": "",
          "type": "uint256"
        }
      ],
      "stateMutability": "view",
      "type": "function"
    },
    {
      "inputs": [
        {
          "internalType": "address",
          "name": "account",
          "type": "address"
        },
        {
          "internalType": "uint256",
          "name": "timepoint",
          "type": "uint256"
        }
      ],
      "name": "getPastVotes",
      "outputs": [
        {
          "internalType": "uint256",
          "name": "",
          "type": "uint256"
        }
      ],
      "stateMutability": "view",
      "type": "function"
    },
    {
      "inputs": [
        {
          "internalType": "address",
          "name": "account",
          "type": "address"
        }
      ],
      "name": "getVotes",
      "outputs": [
        {
          "internalType": "uint256",
          "name": "",
          "type": "uint256"
        }
      ],
      "stateMutability": "view",
      "type": "function"
    },
    {
      "inputs": [],
      "name": "name",
      "outputs": [
        {
          "internalType": "string",
          "name": "",
          "type": "string"
        }
      ],
      "stateMutability": "view",
      "type": "function"
    },
    {
      "inputs": [
        {
          "internalType": "address",
          "name": "owner",
          "type": "address"
        }
      ],
      "name": "nonces",
      "outputs": [
        {
          "internalType": "uint256",
          "name": "",
          "type": "uint256"
        }
      ],
      "stateMutability": "view",
      "type": "function"
    },
    {
      "inputs": [
        {
          "internalType": "address",
          "name": "account",
          "type": "address"
        }
      ],
      "name": "numCheckpoints",
      "outputs": [
        {
          "internalType": "uint32",
          "name": "",
          "type": "uint32"
        }
      ],
      "stateMutability": "view",
      "type": "function"
    },
    {
      "inputs": [],
      "name": "owner",
      "outputs": [
        {
          "internalType": "address",
          "name": "",
          "type": "address"
        }
      ],
      "stateMutability": "view",
      "type": "function"
    },
    {
      "inputs": [
        {
          "internalType": "address",
          "name": "owner",
          "type": "address"
        },
        {
          "internalType": "address",
          "name": "spender",
          "type": "address"
        },
        {
          "internalType": "uint256",
          "name": "value",
          "type": "uint256"
        },
        {
          "internalType": "uint256",
          "name": "deadline",
          "type": "uint256"
        },
        {
          "internalType": "uint8",
          "name": "v",
          "type": "uint8"
        },
        {
          "internalType": "bytes32",
          "name": "r",
          "type": "bytes32"
        },
        {
          "internalType": "bytes32",
          "name": "s",
          "type": "bytes32"
        }
      ],
      "name": "permit",
      "outputs": [],
      "stateMutability": "nonpayable",
      "type": "function"
    },
    {
      "inputs": [],
      "name": "renounceOwnership",
      "outputs": [],
      "stateMutability": "nonpayable",
      "type": "function"
    },
    {
      "inputs": [],
      "name": "symbol",
      "outputs": [
        {
          "internalType": "string",
          "name": "",
          "type": "string"
        }
      ],
      "stateMutability": "view",
      "type": "function"
    },
    {
      "inputs": [],
      "name": "totalSupply",
      "outputs": [
        {
          "internalType": "uint256",
          "name": "",
          "type": "uint256"
        }
      ],
      "stateMutability": "view",
      "type": "function"
    },
    {
      "inputs": [
        {
          "internalType": "address",
          "name": "to",
          "type": "address"
        },
        {
          "internalType": "uint256",
          "name": "value",
          "type": "uint256"
        }
      ],
      "name": "transfer",
      "outputs": [
        {
          "internalType": "bool",
          "name": "",
          "type": "bool"
        }
      ],
      "stateMutability": "nonpayable",
      "type": "function"
    },
    {
      "inputs": [
        {
          "internalType": "address",
          "name": "from",
          "type": "address"
        },
        {
          "internalType": "address",
          "name": "to",
          "type": "address"
        },
        {
          "internalType": "uint256",
          "name": "value",
          "type": "uint256"
        }
      ],
      "name": "transferFrom",
      "outputs": [
        {
          "internalType": "bool",
          "name": "",
          "type": "bool"
        }
      ],
      "stateMutability": "nonpayable",
      "type": "function"
    },
    {
      "inputs": [
        {
          "internalType": "address",
          "name": "newOwner",
          "type": "address"
        }
      ],
      "name": "transferOwnership",
      "outputs": [],
      "stateMutability": "nonpayable",
      "type": "function"
    }
  ],
  "transactionHash": "0x1a11731ae56530b2ae5ebc29d0a8a373a48727aeca575dced3f16fb2f432de51",
  "args": [],
  "numDeployments": 4,
  "solcInputHash": "86c8b0d63730267fe85d839a66715d75",
  "bytecode": "0x6101606040523480156200001257600080fd5b50336040518060400160405280600e81526020017f5448452046414c5345204e494e45000000000000000000000000000000000000815250806040518060400160405280600181526020017f31000000000000000000000000000000000000000000000000000000000000008152506040518060400160405280600e81526020017f5448452046414c5345204e494e450000000000000000000000000000000000008152506040518060400160405280600381526020017f54464e00000000000000000000000000000000000000000000000000000000008152508160039081620000fe9190620014dc565b508060049081620001109190620014dc565b50505062000129600583620002a060201b90919060201c565b610120818152505062000147600682620002a060201b90919060201c565b6101408181525050818051906020012060e08181525050808051906020012061010081815250504660a0818152505062000186620002f860201b60201c565b608081815250503073ffffffffffffffffffffffffffffffffffffffff1660c08173ffffffffffffffffffffffffffffffffffffffff1681525050505050600073ffffffffffffffffffffffffffffffffffffffff168173ffffffffffffffffffffffffffffffffffffffff1603620002395760006040517f1e4fbdf700000000000000000000000000000000000000000000000000000000815260040162000230919062001608565b60405180910390fd5b6200024a816200035560201b60201c565b506200029a6200025f6200041b60201b60201c565b6200026f6200042360201b60201c565b600a6200027d9190620017b5565b633b9aca006200028e919062001806565b6200042c60201b60201c565b62001cdc565b6000602083511015620002c657620002be83620004b960201b60201c565b9050620002f2565b82620002d8836200052660201b60201c565b6000019081620002e99190620014dc565b5060ff60001b90505b92915050565b60007f8b73c3c69bb8fe3d512ecc4cf759cc79239f7b179b0ffacaa9a75d522b39400f60e0516101005146306040516020016200033a9594939291906200187d565b60405160208183030381529060405280519060200120905090565b6000600b60009054906101000a900473ffffffffffffffffffffffffffffffffffffffff16905081600b60006101000a81548173ffffffffffffffffffffffffffffffffffffffff021916908373ffffffffffffffffffffffffffffffffffffffff1602179055508173ffffffffffffffffffffffffffffffffffffffff168173ffffffffffffffffffffffffffffffffffffffff167f8be0079c531659141344cd1fd0a4f28419497f9722a3daafe3b4186f6b6457e060405160405180910390a35050565b600033905090565b60006012905090565b600073ffffffffffffffffffffffffffffffffffffffff168273ffffffffffffffffffffffffffffffffffffffff1603620004a15760006040517fec442f0500000000000000000000000000000000000000000000000000000000815260040162000498919062001608565b60405180910390fd5b620004b5600083836200053060201b60201c565b5050565b600080829050601f815111156200050957826040517f305a27a900000000000000000000000000000000000000000000000000000000815260040162000500919062001969565b60405180910390fd5b8051816200051790620019bf565b60001c1760001b915050919050565b6000819050919050565b620005438383836200054860201b60201c565b505050565b6200055b8383836200061d60201b60201c565b600073ffffffffffffffffffffffffffffffffffffffff168373ffffffffffffffffffffffffffffffffffffffff160362000605576000620005a26200084d60201b60201c565b90506000620005b66200085760201b60201c565b905080821115620006025781816040517f1cb15d26000000000000000000000000000000000000000000000000000000008152600401620005f992919062001a2f565b60405180910390fd5b50505b620006188383836200087b60201b60201c565b505050565b600073ffffffffffffffffffffffffffffffffffffffff168373ffffffffffffffffffffffffffffffffffffffff16036200067357806002600082825462000666919062001a5c565b9250508190555062000749565b60008060008573ffffffffffffffffffffffffffffffffffffffff1673ffffffffffffffffffffffffffffffffffffffff1681526020019081526020016000205490508181101562000702578381836040517fe450d38c000000000000000000000000000000000000000000000000000000008152600401620006f99392919062001a97565b60405180910390fd5b8181036000808673ffffffffffffffffffffffffffffffffffffffff1673ffffffffffffffffffffffffffffffffffffffff16815260200190815260200160002081905550505b600073ffffffffffffffffffffffffffffffffffffffff168273ffffffffffffffffffffffffffffffffffffffff1603620007945780600260008282540392505081905550620007e1565b806000808473ffffffffffffffffffffffffffffffffffffffff1673ffffffffffffffffffffffffffffffffffffffff168152602001908152602001600020600082825401925050819055505b8173ffffffffffffffffffffffffffffffffffffffff168373ffffffffffffffffffffffffffffffffffffffff167fddf252ad1be2c89b69c2b068fc378daa952ba7f163c4a11628f55a4df523b3ef8360405162000840919062001ad4565b60405180910390a3505050565b6000600254905090565b600079ffffffffffffffffffffffffffffffffffffffffffffffffffff8016905090565b600073ffffffffffffffffffffffffffffffffffffffff168373ffffffffffffffffffffffffffffffffffffffff1603620008e257620008df600a6200098160201b6200104217620008d3846200099960201b60201c565b62000a0a60201b60201c565b50505b600073ffffffffffffffffffffffffffffffffffffffff168273ffffffffffffffffffffffffffffffffffffffff1603620009495762000946600a62000a5a60201b62001058176200093a846200099960201b60201c565b62000a0a60201b60201c565b50505b6200097c6200095e8462000a7260201b60201c565b6200096f8462000a7260201b60201c565b8362000adb60201b60201c565b505050565b6000818362000991919062001b17565b905092915050565b600079ffffffffffffffffffffffffffffffffffffffffffffffffffff801682111562000a025760d0826040517f6dfcc650000000000000000000000000000000000000000000000000000000008152600401620009f992919062001baf565b60405180910390fd5b819050919050565b60008062000a4e62000a2162000d8e60201b60201c565b62000a3d62000a368862000da560201b60201c565b868860201c565b8762000e1960201b9092919060201c565b91509150935093915050565b6000818362000a6a919062001bdc565b905092915050565b6000600860008373ffffffffffffffffffffffffffffffffffffffff1673ffffffffffffffffffffffffffffffffffffffff16815260200190815260200160002060009054906101000a900473ffffffffffffffffffffffffffffffffffffffff169050919050565b8173ffffffffffffffffffffffffffffffffffffffff168373ffffffffffffffffffffffffffffffffffffffff161415801562000b185750600081115b1562000d8957600073ffffffffffffffffffffffffffffffffffffffff168373ffffffffffffffffffffffffffffffffffffffff161462000c535760008062000bc2600960008773ffffffffffffffffffffffffffffffffffffffff1673ffffffffffffffffffffffffffffffffffffffff16815260200190815260200160002062000a5a60201b620010581762000bb6866200099960201b60201c565b62000a0a60201b60201c565b79ffffffffffffffffffffffffffffffffffffffffffffffffffff16915079ffffffffffffffffffffffffffffffffffffffffffffffffffff1691508473ffffffffffffffffffffffffffffffffffffffff167fdec2bacdd2f05b59de34da9b523dff8be42e5e38e818c82fdb0bae774387a724838360405162000c4892919062001a2f565b60405180910390a250505b600073ffffffffffffffffffffffffffffffffffffffff168273ffffffffffffffffffffffffffffffffffffffff161462000d885760008062000cf7600960008673ffffffffffffffffffffffffffffffffffffffff1673ffffffffffffffffffffffffffffffffffffffff1681526020019081526020016000206200098160201b620010421762000ceb866200099960201b60201c565b62000a0a60201b60201c565b79ffffffffffffffffffffffffffffffffffffffffffffffffffff16915079ffffffffffffffffffffffffffffffffffffffffffffffffffff1691508373ffffffffffffffffffffffffffffffffffffffff167fdec2bacdd2f05b59de34da9b523dff8be42e5e38e818c82fdb0bae774387a724838360405162000d7d92919062001a2f565b60405180910390a250505b5b505050565b600062000da062000e3e60201b60201c565b905090565b600080826000018054905090506000811462000e0e5762000dde8360000160018362000dd2919062001c31565b62000e5660201b60201c565b60000160069054906101000a900479ffffffffffffffffffffffffffffffffffffffffffffffffffff1662000e11565b60005b915050919050565b60008062000e3285600001858562000e6b60201b60201c565b91509150935093915050565b600062000e51436200120560201b60201c565b905090565b60008260005281602060002001905092915050565b60008060008580549050905060008111156200111557600062000ea38760018462000e97919062001c31565b62000e5660201b60201c565b6040518060400160405290816000820160009054906101000a900465ffffffffffff1665ffffffffffff1665ffffffffffff1681526020016000820160069054906101000a900479ffffffffffffffffffffffffffffffffffffffffffffffffffff1679ffffffffffffffffffffffffffffffffffffffffffffffffffff1679ffffffffffffffffffffffffffffffffffffffffffffffffffff168152505090508565ffffffffffff16816000015165ffffffffffff16111562000f93576040517f2520601d00000000000000000000000000000000000000000000000000000000815260040160405180910390fd5b8565ffffffffffff16816000015165ffffffffffff160362001023578462000fd08860018562000fc4919062001c31565b62000e5660201b60201c565b60000160066101000a81548179ffffffffffffffffffffffffffffffffffffffffffffffffffff021916908379ffffffffffffffffffffffffffffffffffffffffffffffffffff16021790555062001103565b8660405180604001604052808865ffffffffffff1681526020018779ffffffffffffffffffffffffffffffffffffffffffffffffffff168152509080600181540180825580915050600190039060005260206000200160009091909190915060008201518160000160006101000a81548165ffffffffffff021916908365ffffffffffff16021790555060208201518160000160066101000a81548179ffffffffffffffffffffffffffffffffffffffffffffffffffff021916908379ffffffffffffffffffffffffffffffffffffffffffffffffffff16021790555050505b806020015185935093505050620011fd565b8560405180604001604052808765ffffffffffff1681526020018679ffffffffffffffffffffffffffffffffffffffffffffffffffff168152509080600181540180825580915050600190039060005260206000200160009091909190915060008201518160000160006101000a81548165ffffffffffff021916908365ffffffffffff16021790555060208201518160000160066101000a81548179ffffffffffffffffffffffffffffffffffffffffffffffffffff021916908379ffffffffffffffffffffffffffffffffffffffffffffffffffff160217905550505060008492509250505b935093915050565b600065ffffffffffff80168211156200125a576030826040517f6dfcc6500000000000000000000000000000000000000000000000000000000081526004016200125192919062001caf565b60405180910390fd5b819050919050565b600081519050919050565b7f4e487b7100000000000000000000000000000000000000000000000000000000600052604160045260246000fd5b7f4e487b7100000000000000000000000000000000000000000000000000000000600052602260045260246000fd5b60006002820490506001821680620012e457607f821691505b602082108103620012fa57620012f96200129c565b5b50919050565b60008190508160005260206000209050919050565b60006020601f8301049050919050565b600082821b905092915050565b600060088302620013647fffffffffffffffffffffffffffffffffffffffffffffffffffffffffffffffff8262001325565b62001370868362001325565b95508019841693508086168417925050509392505050565b6000819050919050565b6000819050919050565b6000620013bd620013b7620013b18462001388565b62001392565b62001388565b9050919050565b6000819050919050565b620013d9836200139c565b620013f1620013e882620013c4565b84845462001332565b825550505050565b600090565b62001408620013f9565b62001415818484620013ce565b505050565b5b818110156200143d5762001431600082620013fe565b6001810190506200141b565b5050565b601f8211156200148c57620014568162001300565b620014618462001315565b8101602085101562001471578190505b62001489620014808562001315565b8301826200141a565b50505b505050565b600082821c905092915050565b6000620014b16000198460080262001491565b1980831691505092915050565b6000620014cc83836200149e565b9150826002028217905092915050565b620014e78262001262565b67ffffffffffffffff8111156200150357620015026200126d565b5b6200150f8254620012cb565b6200151c82828562001441565b600060209050601f8311600181146200155457600084156200153f578287015190505b6200154b8582620014be565b865550620015bb565b601f198416620015648662001300565b60005b828110156200158e5784890151825560018201915060208501945060208101905062001567565b86831015620015ae5784890151620015aa601f8916826200149e565b8355505b6001600288020188555050505b505050505050565b600073ffffffffffffffffffffffffffffffffffffffff82169050919050565b6000620015f082620015c3565b9050919050565b6200160281620015e3565b82525050565b60006020820190506200161f6000830184620015f7565b92915050565b7f4e487b7100000000000000000000000000000000000000000000000000000000600052601160045260246000fd5b60008160011c9050919050565b6000808291508390505b6001851115620016b3578086048111156200168b576200168a62001625565b5b60018516156200169b5780820291505b8081029050620016ab8562001654565b94506200166b565b94509492505050565b600082620016ce5760019050620017a1565b81620016de5760009050620017a1565b8160018114620016f75760028114620017025762001738565b6001915050620017a1565b60ff84111562001717576200171662001625565b5b8360020a91508482111562001731576200173062001625565b5b50620017a1565b5060208310610133831016604e8410600b8410161715620017725782820a9050838111156200176c576200176b62001625565b5b620017a1565b62001781848484600162001661565b925090508184048111156200179b576200179a62001625565b5b81810290505b9392505050565b600060ff82169050919050565b6000620017c28262001388565b9150620017cf83620017a8565b9250620017fe7fffffffffffffffffffffffffffffffffffffffffffffffffffffffffffffffff8484620016bc565b905092915050565b6000620018138262001388565b9150620018208362001388565b9250828202620018308162001388565b915082820484148315176200184a576200184962001625565b5b5092915050565b6000819050919050565b620018668162001851565b82525050565b620018778162001388565b82525050565b600060a0820190506200189460008301886200185b565b620018a360208301876200185b565b620018b260408301866200185b565b620018c160608301856200186c565b620018d06080830184620015f7565b9695505050505050565b600082825260208201905092915050565b60005b838110156200190b578082015181840152602081019050620018ee565b60008484015250505050565b6000601f19601f8301169050919050565b6000620019358262001262565b620019418185620018da565b935062001953818560208601620018eb565b6200195e8162001917565b840191505092915050565b6000602082019050818103600083015262001985818462001928565b905092915050565b600081519050919050565b6000819050602082019050919050565b6000620019b6825162001851565b80915050919050565b6000620019cc826200198d565b82620019d88462001998565b9050620019e581620019a8565b9250602082101562001a285762001a237fffffffffffffffffffffffffffffffffffffffffffffffffffffffffffffffff8360200360080262001325565b831692505b5050919050565b600060408201905062001a4660008301856200186c565b62001a5560208301846200186c565b9392505050565b600062001a698262001388565b915062001a768362001388565b925082820190508082111562001a915762001a9062001625565b5b92915050565b600060608201905062001aae6000830186620015f7565b62001abd60208301856200186c565b62001acc60408301846200186c565b949350505050565b600060208201905062001aeb60008301846200186c565b92915050565b600079ffffffffffffffffffffffffffffffffffffffffffffffffffff82169050919050565b600062001b248262001af1565b915062001b318362001af1565b9250828201905079ffffffffffffffffffffffffffffffffffffffffffffffffffff81111562001b665762001b6562001625565b5b92915050565b6000819050919050565b600062001b9762001b9162001b8b8462001b6c565b62001392565b620017a8565b9050919050565b62001ba98162001b76565b82525050565b600060408201905062001bc6600083018562001b9e565b62001bd560208301846200186c565b9392505050565b600062001be98262001af1565b915062001bf68362001af1565b9250828203905079ffffffffffffffffffffffffffffffffffffffffffffffffffff81111562001c2b5762001c2a62001625565b5b92915050565b600062001c3e8262001388565b915062001c4b8362001388565b925082820390508181111562001c665762001c6562001625565b5b92915050565b6000819050919050565b600062001c9762001c9162001c8b8462001c6c565b62001392565b620017a8565b9050919050565b62001ca98162001c76565b82525050565b600060408201905062001cc6600083018562001c9e565b62001cd560208301846200186c565b9392505050565b60805160a05160c05160e051610100516101205161014051613d1762001d3760003960006117bc0152600061178101526000611bdd01526000611bbc015260006112140152600061126a015260006112930152613d176000f3fe608060405234801561001057600080fd5b50600436106101e55760003560e01c806370a082311161010f57806395d89b41116100a2578063d505accf11610071578063d505accf146105b2578063dd62ed3e146105ce578063f1127ed8146105fe578063f2fde38b1461062e576101e5565b806395d89b41146105185780639ab24eb014610536578063a9059cbb14610566578063c3cda52014610596576101e5565b806384b0196e116100de57806384b0196e146104885780638da5cb5b146104ac5780638e539e8c146104ca57806391ddadf4146104fa576101e5565b806370a0823114610402578063715018a61461043257806379cc67901461043c5780637ecebe0014610458576101e5565b80633644e515116101875780634bf5d7e9116101565780634bf5d7e914610368578063587cde1e146103865780635c19a95c146103b65780636fcfff45146103d2576101e5565b80633644e515146102e057806336c20dcf146102fe5780633a46b1a81461031c57806342966c681461034c576101e5565b806318821400116101c3578063188214001461025657806323b872dd146102745780632a905318146102a4578063313ce567146102c2576101e5565b806306fdde03146101ea578063095ea7b31461020857806318160ddd14610238575b600080fd5b6101f261064a565b6040516101ff9190612fc1565b60405180910390f35b610222600480360381019061021d919061307c565b6106dc565b60405161022f91906130d7565b60405180910390f35b6102406106ff565b60405161024d9190613101565b60405180910390f35b61025e610709565b60405161026b9190612fc1565b60405180910390f35b61028e6004803603810190610289919061311c565b610742565b60405161029b91906130d7565b60405180910390f35b6102ac610771565b6040516102b99190612fc1565b60405180910390f35b6102ca6107aa565b6040516102d7919061318b565b60405180910390f35b6102e86107b3565b6040516102f591906131bf565b60405180910390f35b6103066107c2565b6040516103139190613101565b60405180910390f35b6103366004803603810190610331919061307c565b6107ca565b6040516103439190613101565b60405180910390f35b610366600480360381019061036191906131da565b6108a3565b005b6103706108b7565b60405161037d9190612fc1565b60405180910390f35b6103a0600480360381019061039b9190613207565b61094b565b6040516103ad9190613243565b60405180910390f35b6103d060048036038101906103cb9190613207565b6109b4565b005b6103ec60048036038101906103e79190613207565b6109ce565b6040516103f9919061327d565b60405180910390f35b61041c60048036038101906104179190613207565b6109e0565b6040516104299190613101565b60405180910390f35b61043a610a28565b005b6104566004803603810190610451919061307c565b610a3c565b005b610472600480360381019061046d9190613207565b610a5c565b60405161047f9190613101565b60405180910390f35b610490610a6e565b6040516104a39796959493929190613391565b60405180910390f35b6104b4610b18565b6040516104c19190613243565b60405180910390f35b6104e460048036038101906104df91906131da565b610b42565b6040516104f19190613101565b60405180910390f35b610502610bdd565b60405161050f9190613436565b60405180910390f35b610520610bec565b60405161052d9190612fc1565b60405180910390f35b610550600480360381019061054b9190613207565b610c7e565b60405161055d9190613101565b60405180910390f35b610580600480360381019061057b919061307c565b610cea565b60405161058d91906130d7565b60405180910390f35b6105b060048036038101906105ab91906134a9565b610d0d565b005b6105cc60048036038101906105c79190613536565b610dd3565b005b6105e860048036038101906105e391906135d8565b610f1b565b6040516105f59190613101565b60405180910390f35b61061860048036038101906106139190613644565b610fa2565b60405161062591906136f7565b60405180910390f35b61064860048036038101906106439190613207565b610fbc565b005b60606003805461065990613741565b80601f016020809104026020016040519081016040528092919081815260200182805461068590613741565b80156106d25780601f106106a7576101008083540402835291602001916106d2565b820191906000526020600020905b8154815290600101906020018083116106b557829003601f168201915b5050505050905090565b6000806106e761106e565b90506106f4818585611076565b600191505092915050565b6000600254905090565b6040518060400160405280600e81526020017f5448452046414c5345204e494e4500000000000000000000000000000000000081525081565b60008061074d61106e565b905061075a858285611088565b61076585858561111c565b60019150509392505050565b6040518060400160405280600381526020017f54464e000000000000000000000000000000000000000000000000000000000081525081565b60006012905090565b60006107bd611210565b905090565b633b9aca0081565b6000806107d5610bdd565b90508065ffffffffffff1683106108255782816040517fecd3f81e00000000000000000000000000000000000000000000000000000000815260040161081c929190613772565b60405180910390fd5b61087e610831846112c7565b600960008773ffffffffffffffffffffffffffffffffffffffff1673ffffffffffffffffffffffffffffffffffffffff16815260200190815260200160002061132190919063ffffffff16565b79ffffffffffffffffffffffffffffffffffffffffffffffffffff1691505092915050565b6108b46108ae61106e565b8261141b565b50565b60606108c161149d565b65ffffffffffff166108d1610bdd565b65ffffffffffff1614610910576040517f6ff0714000000000000000000000000000000000000000000000000000000000815260040160405180910390fd5b6040518060400160405280601d81526020017f6d6f64653d626c6f636b6e756d6265722666726f6d3d64656661756c74000000815250905090565b6000600860008373ffffffffffffffffffffffffffffffffffffffff1673ffffffffffffffffffffffffffffffffffffffff16815260200190815260200160002060009054906101000a900473ffffffffffffffffffffffffffffffffffffffff169050919050565b60006109be61106e565b90506109ca81836114ad565b5050565b60006109d9826115c1565b9050919050565b60008060008373ffffffffffffffffffffffffffffffffffffffff1673ffffffffffffffffffffffffffffffffffffffff168152602001908152602001600020549050919050565b610a30611619565b610a3a60006116a0565b565b610a4e82610a4861106e565b83611088565b610a58828261141b565b5050565b6000610a6782611766565b9050919050565b600060608060008060006060610a82611778565b610a8a6117b3565b46306000801b600067ffffffffffffffff811115610aab57610aaa61379b565b5b604051908082528060200260200182016040528015610ad95781602001602082028036833780820191505090505b507f0f00000000000000000000000000000000000000000000000000000000000000959493929190965096509650965096509650965090919293949596565b6000600b60009054906101000a900473ffffffffffffffffffffffffffffffffffffffff16905090565b600080610b4d610bdd565b90508065ffffffffffff168310610b9d5782816040517fecd3f81e000000000000000000000000000000000000000000000000000000008152600401610b94929190613772565b60405180910390fd5b610bb9610ba9846112c7565b600a61132190919063ffffffff16565b79ffffffffffffffffffffffffffffffffffffffffffffffffffff16915050919050565b6000610be761149d565b905090565b606060048054610bfb90613741565b80601f0160208091040260200160405190810160405280929190818152602001828054610c2790613741565b8015610c745780601f10610c4957610100808354040283529160200191610c74565b820191906000526020600020905b815481529060010190602001808311610c5757829003601f168201915b5050505050905090565b6000610cc7600960008473ffffffffffffffffffffffffffffffffffffffff1673ffffffffffffffffffffffffffffffffffffffff1681526020019081526020016000206117ee565b79ffffffffffffffffffffffffffffffffffffffffffffffffffff169050919050565b600080610cf561106e565b9050610d0281858561111c565b600191505092915050565b83421115610d5257836040517f4683af0e000000000000000000000000000000000000000000000000000000008152600401610d499190613101565b60405180910390fd5b6000610db4610dac7fe48329057bfd03d55e49b547132e39cffd9c1820ad7b9d4c5307691425d15adf898989604051602001610d9194939291906137ca565b60405160208183030381529060405280519060200120611856565b858585611870565b9050610dc081876118a0565b610dca81886114ad565b50505050505050565b83421115610e1857836040517f62791302000000000000000000000000000000000000000000000000000000008152600401610e0f9190613101565b60405180910390fd5b60007f6e71edae12b1b97f4d1f60370fef10105fa2faae0126114a169c64845d6126c9888888610e478c6118f8565b89604051602001610e5d9695949392919061380f565b6040516020818303038152906040528051906020012090506000610e8082611856565b90506000610e9082878787611870565b90508973ffffffffffffffffffffffffffffffffffffffff168173ffffffffffffffffffffffffffffffffffffffff1614610f0457808a6040517f4b800e46000000000000000000000000000000000000000000000000000000008152600401610efb929190613870565b60405180910390fd5b610f0f8a8a8a611076565b50505050505050505050565b6000600160008473ffffffffffffffffffffffffffffffffffffffff1673ffffffffffffffffffffffffffffffffffffffff16815260200190815260200160002060008373ffffffffffffffffffffffffffffffffffffffff1673ffffffffffffffffffffffffffffffffffffffff16815260200190815260200160002054905092915050565b610faa612ef3565b610fb4838361194f565b905092915050565b610fc4611619565b600073ffffffffffffffffffffffffffffffffffffffff168173ffffffffffffffffffffffffffffffffffffffff16036110365760006040517f1e4fbdf700000000000000000000000000000000000000000000000000000000815260040161102d9190613243565b60405180910390fd5b61103f816116a0565b50565b6000818361105091906138c8565b905092915050565b600081836110669190613916565b905092915050565b600033905090565b61108383838360016119b0565b505050565b60006110948484610f1b565b90507fffffffffffffffffffffffffffffffffffffffffffffffffffffffffffffffff81146111165781811015611106578281836040517ffb8f41b20000000000000000000000000000000000000000000000000000000081526004016110fd93929190613964565b60405180910390fd5b611115848484840360006119b0565b5b50505050565b600073ffffffffffffffffffffffffffffffffffffffff168373ffffffffffffffffffffffffffffffffffffffff160361118e5760006040517f96c6fd1e0000000000000000000000000000000000000000000000000000000081526004016111859190613243565b60405180910390fd5b600073ffffffffffffffffffffffffffffffffffffffff168273ffffffffffffffffffffffffffffffffffffffff16036112005760006040517fec442f050000000000000000000000000000000000000000000000000000000081526004016111f79190613243565b60405180910390fd5b61120b838383611b87565b505050565b60007f000000000000000000000000000000000000000000000000000000000000000073ffffffffffffffffffffffffffffffffffffffff163073ffffffffffffffffffffffffffffffffffffffff1614801561128c57507f000000000000000000000000000000000000000000000000000000000000000046145b156112b9577f000000000000000000000000000000000000000000000000000000000000000090506112c4565b6112c1611b97565b90505b90565b600065ffffffffffff8016821115611319576030826040517f6dfcc6500000000000000000000000000000000000000000000000000000000081526004016113109291906139e0565b60405180910390fd5b819050919050565b6000808360000180549050905060008082905060058311156113a957600061134884611c2d565b846113539190613a09565b90506113628760000182611d26565b60000160009054906101000a900465ffffffffffff1665ffffffffffff168665ffffffffffff161015611397578091506113a7565b6001816113a49190613a3d565b92505b505b60006113ba87600001878585611d3b565b90506000811461140c576113dd876000016001836113d89190613a09565b611d26565b60000160069054906101000a900479ffffffffffffffffffffffffffffffffffffffffffffffffffff1661140f565b60005b94505050505092915050565b600073ffffffffffffffffffffffffffffffffffffffff168273ffffffffffffffffffffffffffffffffffffffff160361148d5760006040517f96c6fd1e0000000000000000000000000000000000000000000000000000000081526004016114849190613243565b60405180910390fd5b61149982600083611b87565b5050565b60006114a8436112c7565b905090565b60006114b88361094b565b905081600860008573ffffffffffffffffffffffffffffffffffffffff1673ffffffffffffffffffffffffffffffffffffffff16815260200190815260200160002060006101000a81548173ffffffffffffffffffffffffffffffffffffffff021916908373ffffffffffffffffffffffffffffffffffffffff1602179055508173ffffffffffffffffffffffffffffffffffffffff168173ffffffffffffffffffffffffffffffffffffffff168473ffffffffffffffffffffffffffffffffffffffff167f3134e8a2e6d97e929a7e54011ea5485d7d196dd5f0ba4d4ef95803e8e3fc257f60405160405180910390a46115bc81836115b786611db4565b611dc6565b505050565b600061161261160d600960008573ffffffffffffffffffffffffffffffffffffffff1673ffffffffffffffffffffffffffffffffffffffff16815260200190815260200160002061203f565b612050565b9050919050565b61162161106e565b73ffffffffffffffffffffffffffffffffffffffff1661163f610b18565b73ffffffffffffffffffffffffffffffffffffffff161461169e5761166261106e565b6040517f118cdaa70000000000000000000000000000000000000000000000000000000081526004016116959190613243565b60405180910390fd5b565b6000600b60009054906101000a900473ffffffffffffffffffffffffffffffffffffffff16905081600b60006101000a81548173ffffffffffffffffffffffffffffffffffffffff021916908373ffffffffffffffffffffffffffffffffffffffff1602179055508173ffffffffffffffffffffffffffffffffffffffff168173ffffffffffffffffffffffffffffffffffffffff167f8be0079c531659141344cd1fd0a4f28419497f9722a3daafe3b4186f6b6457e060405160405180910390a35050565b6000611771826120a8565b9050919050565b60606117ae60057f00000000000000000000000000000000000000000000000000000000000000006120f190919063ffffffff16565b905090565b60606117e960067f00000000000000000000000000000000000000000000000000000000000000006120f190919063ffffffff16565b905090565b600080826000018054905090506000811461184b5761181c836000016001836118179190613a09565b611d26565b60000160069054906101000a900479ffffffffffffffffffffffffffffffffffffffffffffffffffff1661184e565b60005b915050919050565b6000611869611863611210565b836121a1565b9050919050565b600080600080611882888888886121e2565b92509250925061189282826122d6565b829350505050949350505050565b60006118ab836118f8565b90508082146118f35782816040517f752d88c00000000000000000000000000000000000000000000000000000000081526004016118ea929190613a71565b60405180910390fd5b505050565b6000600760008373ffffffffffffffffffffffffffffffffffffffff1673ffffffffffffffffffffffffffffffffffffffff1681526020019081526020016000206000815480929190600101919050559050919050565b611957612ef3565b6119a882600960008673ffffffffffffffffffffffffffffffffffffffff1673ffffffffffffffffffffffffffffffffffffffff16815260200190815260200160002061243a90919063ffffffff16565b905092915050565b600073ffffffffffffffffffffffffffffffffffffffff168473ffffffffffffffffffffffffffffffffffffffff1603611a225760006040517fe602df05000000000000000000000000000000000000000000000000000000008152600401611a199190613243565b60405180910390fd5b600073ffffffffffffffffffffffffffffffffffffffff168373ffffffffffffffffffffffffffffffffffffffff1603611a945760006040517f94280d62000000000000000000000000000000000000000000000000000000008152600401611a8b9190613243565b60405180910390fd5b81600160008673ffffffffffffffffffffffffffffffffffffffff1673ffffffffffffffffffffffffffffffffffffffff16815260200190815260200160002060008573ffffffffffffffffffffffffffffffffffffffff1673ffffffffffffffffffffffffffffffffffffffff168152602001908152602001600020819055508015611b81578273ffffffffffffffffffffffffffffffffffffffff168473ffffffffffffffffffffffffffffffffffffffff167f8c5be1e5ebec7d5bd14f71427d1e84f3dd0314c0f7b2291e5b200ac8c7c3b92584604051611b789190613101565b60405180910390a35b50505050565b611b9283838361250f565b505050565b60007f8b73c3c69bb8fe3d512ecc4cf759cc79239f7b179b0ffacaa9a75d522b39400f7f00000000000000000000000000000000000000000000000000000000000000007f00000000000000000000000000000000000000000000000000000000000000004630604051602001611c12959493929190613a9a565b60405160208183030381529060405280519060200120905090565b6000808203611c3f5760009050611d21565b60006001611c4c846125c0565b901c6001901b90506001818481611c6657611c65613aed565b5b048201901c90506001818481611c7f57611c7e613aed565b5b048201901c90506001818481611c9857611c97613aed565b5b048201901c90506001818481611cb157611cb0613aed565b5b048201901c90506001818481611cca57611cc9613aed565b5b048201901c90506001818481611ce357611ce2613aed565b5b048201901c90506001818481611cfc57611cfb613aed565b5b048201901c9050611d1d81828581611d1757611d16613aed565b5b046126a1565b9150505b919050565b60008260005281602060002001905092915050565b60005b81831015611da9576000611d5284846126ba565b90508465ffffffffffff16611d678783611d26565b60000160009054906101000a900465ffffffffffff1665ffffffffffff161115611d9357809250611da3565b600181611da09190613a3d565b93505b50611d3e565b819050949350505050565b6000611dbf826109e0565b9050919050565b8173ffffffffffffffffffffffffffffffffffffffff168373ffffffffffffffffffffffffffffffffffffffff1614158015611e025750600081115b1561203a57600073ffffffffffffffffffffffffffffffffffffffff168373ffffffffffffffffffffffffffffffffffffffff1614611f2057600080611e91600960008773ffffffffffffffffffffffffffffffffffffffff1673ffffffffffffffffffffffffffffffffffffffff168152602001908152602001600020611058611e8c866126e0565b61274e565b79ffffffffffffffffffffffffffffffffffffffffffffffffffff16915079ffffffffffffffffffffffffffffffffffffffffffffffffffff1691508473ffffffffffffffffffffffffffffffffffffffff167fdec2bacdd2f05b59de34da9b523dff8be42e5e38e818c82fdb0bae774387a7248383604051611f15929190613b1c565b60405180910390a250505b600073ffffffffffffffffffffffffffffffffffffffff168273ffffffffffffffffffffffffffffffffffffffff161461203957600080611faa600960008673ffffffffffffffffffffffffffffffffffffffff1673ffffffffffffffffffffffffffffffffffffffff168152602001908152602001600020611042611fa5866126e0565b61274e565b79ffffffffffffffffffffffffffffffffffffffffffffffffffff16915079ffffffffffffffffffffffffffffffffffffffffffffffffffff1691508373ffffffffffffffffffffffffffffffffffffffff167fdec2bacdd2f05b59de34da9b523dff8be42e5e38e818c82fdb0bae774387a724838360405161202e929190613b1c565b60405180910390a250505b5b505050565b600081600001805490509050919050565b600063ffffffff80168211156120a0576020826040517f6dfcc650000000000000000000000000000000000000000000000000000000008152600401612097929190613b80565b60405180910390fd5b819050919050565b6000600760008373ffffffffffffffffffffffffffffffffffffffff1673ffffffffffffffffffffffffffffffffffffffff168152602001908152602001600020549050919050565b606060ff60001b831461210e576121078361278e565b905061219b565b81805461211a90613741565b80601f016020809104026020016040519081016040528092919081815260200182805461214690613741565b80156121935780601f1061216857610100808354040283529160200191612193565b820191906000526020600020905b81548152906001019060200180831161217657829003601f168201915b505050505090505b92915050565b60006040517f190100000000000000000000000000000000000000000000000000000000000081528360028201528260228201526042812091505092915050565b60008060007f7fffffffffffffffffffffffffffffff5d576e7357a4501ddfe92f46681b20a08460001c11156122225760006003859250925092506122cc565b6000600188888888604051600081526020016040526040516122479493929190613ba9565b6020604051602081039080840390855afa158015612269573d6000803e3d6000fd5b505050602060405103519050600073ffffffffffffffffffffffffffffffffffffffff168173ffffffffffffffffffffffffffffffffffffffff16036122bd57600060016000801b935093509350506122cc565b8060008060001b935093509350505b9450945094915050565b600060038111156122ea576122e9613bee565b5b8260038111156122fd576122fc613bee565b5b0315612436576001600381111561231757612316613bee565b5b82600381111561232a57612329613bee565b5b03612361576040517ff645eedf00000000000000000000000000000000000000000000000000000000815260040160405180910390fd5b6002600381111561237557612374613bee565b5b82600381111561238857612387613bee565b5b036123cd578060001c6040517ffce698f70000000000000000000000000000000000000000000000000000000081526004016123c49190613101565b60405180910390fd5b6003808111156123e0576123df613bee565b5b8260038111156123f3576123f2613bee565b5b0361243557806040517fd78bce0c00000000000000000000000000000000000000000000000000000000815260040161242c91906131bf565b60405180910390fd5b5b5050565b612442612ef3565b826000018263ffffffff168154811061245e5761245d613c1d565b5b906000526020600020016040518060400160405290816000820160009054906101000a900465ffffffffffff1665ffffffffffff1665ffffffffffff1681526020016000820160069054906101000a900479ffffffffffffffffffffffffffffffffffffffffffffffffffff1679ffffffffffffffffffffffffffffffffffffffffffffffffffff1679ffffffffffffffffffffffffffffffffffffffffffffffffffff1681525050905092915050565b61251a838383612802565b600073ffffffffffffffffffffffffffffffffffffffff168373ffffffffffffffffffffffffffffffffffffffff16036125b05760006125586106ff565b90506000612564612a27565b9050808211156125ad5781816040517f1cb15d260000000000000000000000000000000000000000000000000000000081526004016125a4929190613b1c565b60405180910390fd5b50505b6125bb838383612a4b565b505050565b600080600090506000608084901c11156125e257608083901c92506080810190505b6000604084901c11156125fd57604083901c92506040810190505b6000602084901c111561261857602083901c92506020810190505b6000601084901c111561263357601083901c92506010810190505b6000600884901c111561264e57600883901c92506008810190505b6000600484901c111561266957600483901c92506004810190505b6000600284901c111561268457600283901c92506002810190505b6000600184901c1115612698576001810190505b80915050919050565b60008183106126b057816126b2565b825b905092915050565b600060028284186126cb9190613c4c565b8284166126d89190613a3d565b905092915050565b600079ffffffffffffffffffffffffffffffffffffffffffffffffffff80168211156127465760d0826040517f6dfcc65000000000000000000000000000000000000000000000000000000000815260040161273d929190613cb8565b60405180910390fd5b819050919050565b60008061278261275c610bdd565b612772612768886117ee565b868863ffffffff16565b87612b059092919063ffffffff16565b91509150935093915050565b6060600061279b83612b22565b90506000602067ffffffffffffffff8111156127ba576127b961379b565b5b6040519080825280601f01601f1916602001820160405280156127ec5781602001600182028036833780820191505090505b5090508181528360208201528092505050919050565b600073ffffffffffffffffffffffffffffffffffffffff168373ffffffffffffffffffffffffffffffffffffffff16036128545780600260008282546128489190613a3d565b92505081905550612927565b60008060008573ffffffffffffffffffffffffffffffffffffffff1673ffffffffffffffffffffffffffffffffffffffff168152602001908152602001600020549050818110156128e0578381836040517fe450d38c0000000000000000000000000000000000000000000000000000000081526004016128d793929190613964565b60405180910390fd5b8181036000808673ffffffffffffffffffffffffffffffffffffffff1673ffffffffffffffffffffffffffffffffffffffff16815260200190815260200160002081905550505b600073ffffffffffffffffffffffffffffffffffffffff168273ffffffffffffffffffffffffffffffffffffffff160361297057806002600082825403925050819055506129bd565b806000808473ffffffffffffffffffffffffffffffffffffffff1673ffffffffffffffffffffffffffffffffffffffff168152602001908152602001600020600082825401925050819055505b8173ffffffffffffffffffffffffffffffffffffffff168373ffffffffffffffffffffffffffffffffffffffff167fddf252ad1be2c89b69c2b068fc378daa952ba7f163c4a11628f55a4df523b3ef83604051612a1a9190613101565b60405180910390a3505050565b600079ffffffffffffffffffffffffffffffffffffffffffffffffffff8016905090565b600073ffffffffffffffffffffffffffffffffffffffff168373ffffffffffffffffffffffffffffffffffffffff1603612a9857612a95600a611042612a90846126e0565b61274e565b50505b600073ffffffffffffffffffffffffffffffffffffffff168273ffffffffffffffffffffffffffffffffffffffff1603612ae557612ae2600a611058612add846126e0565b61274e565b50505b612b00612af18461094b565b612afa8461094b565b83611dc6565b505050565b600080612b16856000018585612b72565b91509150935093915050565b60008060ff8360001c169050601f811115612b69576040517fb3512b0c00000000000000000000000000000000000000000000000000000000815260040160405180910390fd5b80915050919050565b6000806000858054905090506000811115612e03576000612b9f87600184612b9a9190613a09565b611d26565b6040518060400160405290816000820160009054906101000a900465ffffffffffff1665ffffffffffff1665ffffffffffff1681526020016000820160069054906101000a900479ffffffffffffffffffffffffffffffffffffffffffffffffffff1679ffffffffffffffffffffffffffffffffffffffffffffffffffff1679ffffffffffffffffffffffffffffffffffffffffffffffffffff168152505090508565ffffffffffff16816000015165ffffffffffff161115612c8e576040517f2520601d00000000000000000000000000000000000000000000000000000000815260040160405180910390fd5b8565ffffffffffff16816000015165ffffffffffff1603612d125784612cc088600185612cbb9190613a09565b611d26565b60000160066101000a81548179ffffffffffffffffffffffffffffffffffffffffffffffffffff021916908379ffffffffffffffffffffffffffffffffffffffffffffffffffff160217905550612df2565b8660405180604001604052808865ffffffffffff1681526020018779ffffffffffffffffffffffffffffffffffffffffffffffffffff168152509080600181540180825580915050600190039060005260206000200160009091909190915060008201518160000160006101000a81548165ffffffffffff021916908365ffffffffffff16021790555060208201518160000160066101000a81548179ffffffffffffffffffffffffffffffffffffffffffffffffffff021916908379ffffffffffffffffffffffffffffffffffffffffffffffffffff16021790555050505b806020015185935093505050612eeb565b8560405180604001604052808765ffffffffffff1681526020018679ffffffffffffffffffffffffffffffffffffffffffffffffffff168152509080600181540180825580915050600190039060005260206000200160009091909190915060008201518160000160006101000a81548165ffffffffffff021916908365ffffffffffff16021790555060208201518160000160066101000a81548179ffffffffffffffffffffffffffffffffffffffffffffffffffff021916908379ffffffffffffffffffffffffffffffffffffffffffffffffffff160217905550505060008492509250505b935093915050565b6040518060400160405280600065ffffffffffff168152602001600079ffffffffffffffffffffffffffffffffffffffffffffffffffff1681525090565b600081519050919050565b600082825260208201905092915050565b60005b83811015612f6b578082015181840152602081019050612f50565b60008484015250505050565b6000601f19601f8301169050919050565b6000612f9382612f31565b612f9d8185612f3c565b9350612fad818560208601612f4d565b612fb681612f77565b840191505092915050565b60006020820190508181036000830152612fdb8184612f88565b905092915050565b600080fd5b600073ffffffffffffffffffffffffffffffffffffffff82169050919050565b600061301382612fe8565b9050919050565b61302381613008565b811461302e57600080fd5b50565b6000813590506130408161301a565b92915050565b6000819050919050565b61305981613046565b811461306457600080fd5b50565b60008135905061307681613050565b92915050565b6000806040838503121561309357613092612fe3565b5b60006130a185828601613031565b92505060206130b285828601613067565b9150509250929050565b60008115159050919050565b6130d1816130bc565b82525050565b60006020820190506130ec60008301846130c8565b92915050565b6130fb81613046565b82525050565b600060208201905061311660008301846130f2565b92915050565b60008060006060848603121561313557613134612fe3565b5b600061314386828701613031565b935050602061315486828701613031565b925050604061316586828701613067565b9150509250925092565b600060ff82169050919050565b6131858161316f565b82525050565b60006020820190506131a0600083018461317c565b92915050565b6000819050919050565b6131b9816131a6565b82525050565b60006020820190506131d460008301846131b0565b92915050565b6000602082840312156131f0576131ef612fe3565b5b60006131fe84828501613067565b91505092915050565b60006020828403121561321d5761321c612fe3565b5b600061322b84828501613031565b91505092915050565b61323d81613008565b82525050565b60006020820190506132586000830184613234565b92915050565b600063ffffffff82169050919050565b6132778161325e565b82525050565b6000602082019050613292600083018461326e565b92915050565b60007fff0000000000000000000000000000000000000000000000000000000000000082169050919050565b6132cd81613298565b82525050565b600081519050919050565b600082825260208201905092915050565b6000819050602082019050919050565b61330881613046565b82525050565b600061331a83836132ff565b60208301905092915050565b6000602082019050919050565b600061333e826132d3565b61334881856132de565b9350613353836132ef565b8060005b8381101561338457815161336b888261330e565b975061337683613326565b925050600181019050613357565b5085935050505092915050565b600060e0820190506133a6600083018a6132c4565b81810360208301526133b88189612f88565b905081810360408301526133cc8188612f88565b90506133db60608301876130f2565b6133e86080830186613234565b6133f560a08301856131b0565b81810360c08301526134078184613333565b905098975050505050505050565b600065ffffffffffff82169050919050565b61343081613415565b82525050565b600060208201905061344b6000830184613427565b92915050565b61345a8161316f565b811461346557600080fd5b50565b60008135905061347781613451565b92915050565b613486816131a6565b811461349157600080fd5b50565b6000813590506134a38161347d565b92915050565b60008060008060008060c087890312156134c6576134c5612fe3565b5b60006134d489828a01613031565b96505060206134e589828a01613067565b95505060406134f689828a01613067565b945050606061350789828a01613468565b935050608061351889828a01613494565b92505060a061352989828a01613494565b9150509295509295509295565b600080600080600080600060e0888a03121561355557613554612fe3565b5b60006135638a828b01613031565b97505060206135748a828b01613031565b96505060406135858a828b01613067565b95505060606135968a828b01613067565b94505060806135a78a828b01613468565b93505060a06135b88a828b01613494565b92505060c06135c98a828b01613494565b91505092959891949750929550565b600080604083850312156135ef576135ee612fe3565b5b60006135fd85828601613031565b925050602061360e85828601613031565b9150509250929050565b6136218161325e565b811461362c57600080fd5b50565b60008135905061363e81613618565b92915050565b6000806040838503121561365b5761365a612fe3565b5b600061366985828601613031565b925050602061367a8582860161362f565b9150509250929050565b61368d81613415565b82525050565b600079ffffffffffffffffffffffffffffffffffffffffffffffffffff82169050919050565b6136c281613693565b82525050565b6040820160008201516136de6000850182613684565b5060208201516136f160208501826136b9565b50505050565b600060408201905061370c60008301846136c8565b92915050565b7f4e487b7100000000000000000000000000000000000000000000000000000000600052602260045260246000fd5b6000600282049050600182168061375957607f821691505b60208210810361376c5761376b613712565b5b50919050565b600060408201905061378760008301856130f2565b6137946020830184613427565b9392505050565b7f4e487b7100000000000000000000000000000000000000000000000000000000600052604160045260246000fd5b60006080820190506137df60008301876131b0565b6137ec6020830186613234565b6137f960408301856130f2565b61380660608301846130f2565b95945050505050565b600060c08201905061382460008301896131b0565b6138316020830188613234565b61383e6040830187613234565b61384b60608301866130f2565b61385860808301856130f2565b61386560a08301846130f2565b979650505050505050565b60006040820190506138856000830185613234565b6138926020830184613234565b9392505050565b7f4e487b7100000000000000000000000000000000000000000000000000000000600052601160045260246000fd5b60006138d382613693565b91506138de83613693565b9250828201905079ffffffffffffffffffffffffffffffffffffffffffffffffffff8111156139105761390f613899565b5b92915050565b600061392182613693565b915061392c83613693565b9250828203905079ffffffffffffffffffffffffffffffffffffffffffffffffffff81111561395e5761395d613899565b5b92915050565b60006060820190506139796000830186613234565b61398660208301856130f2565b61399360408301846130f2565b949350505050565b6000819050919050565b6000819050919050565b60006139ca6139c56139c08461399b565b6139a5565b61316f565b9050919050565b6139da816139af565b82525050565b60006040820190506139f560008301856139d1565b613a0260208301846130f2565b9392505050565b6000613a1482613046565b9150613a1f83613046565b9250828203905081811115613a3757613a36613899565b5b92915050565b6000613a4882613046565b9150613a5383613046565b9250828201905080821115613a6b57613a6a613899565b5b92915050565b6000604082019050613a866000830185613234565b613a9360208301846130f2565b9392505050565b600060a082019050613aaf60008301886131b0565b613abc60208301876131b0565b613ac960408301866131b0565b613ad660608301856130f2565b613ae36080830184613234565b9695505050505050565b7f4e487b7100000000000000000000000000000000000000000000000000000000600052601260045260246000fd5b6000604082019050613b3160008301856130f2565b613b3e60208301846130f2565b9392505050565b6000819050919050565b6000613b6a613b65613b6084613b45565b6139a5565b61316f565b9050919050565b613b7a81613b4f565b82525050565b6000604082019050613b956000830185613b71565b613ba260208301846130f2565b9392505050565b6000608082019050613bbe60008301876131b0565b613bcb602083018661317c565b613bd860408301856131b0565b613be560608301846131b0565b95945050505050565b7f4e487b7100000000000000000000000000000000000000000000000000000000600052602160045260246000fd5b7f4e487b7100000000000000000000000000000000000000000000000000000000600052603260045260246000fd5b6000613c5782613046565b9150613c6283613046565b925082613c7257613c71613aed565b5b828204905092915050565b6000819050919050565b6000613ca2613c9d613c9884613c7d565b6139a5565b61316f565b9050919050565b613cb281613c87565b82525050565b6000604082019050613ccd6000830185613ca9565b613cda60208301846130f2565b939250505056fea26469706673582212207359c983946197c873256871c830439be0f4f05c9998a6aab947b4adcb4096d964736f6c63430008140033",
  "devdoc": {
    "errors": {
      "CheckpointUnorderedInsertion()": [
        {
          "details": "A value was attempted to be inserted on a past checkpoint."
        }
      ],
      "ECDSAInvalidSignature()": [
        {
          "details": "The signature derives the `address(0)`."
        }
      ],
      "ECDSAInvalidSignatureLength(uint256)": [
        {
          "details": "The signature has an invalid length."
        }
      ],
      "ECDSAInvalidSignatureS(bytes32)": [
        {
          "details": "The signature has an S value that is in the upper half order."
        }
      ],
      "ERC20ExceededSafeSupply(uint256,uint256)": [
        {
          "details": "Total supply cap has been exceeded, introducing a risk of votes overflowing."
        }
      ],
      "ERC20InsufficientAllowance(address,uint256,uint256)": [
        {
          "details": "Indicates a failure with the `spender`s `allowance`. Used in transfers.",
          "params": {
            "allowance": "Amount of tokens a `spender` is allowed to operate with.",
            "needed": "Minimum amount required to perform a transfer.",
            "spender": "Address that may be allowed to operate on tokens without being their owner."
          }
        }
      ],
      "ERC20InsufficientBalance(address,uint256,uint256)": [
        {
          "details": "Indicates an error related to the current `balance` of a `sender`. Used in transfers.",
          "params": {
            "balance": "Current balance for the interacting account.",
            "needed": "Minimum amount required to perform a transfer.",
            "sender": "Address whose tokens are being transferred."
          }
        }
      ],
      "ERC20InvalidApprover(address)": [
        {
          "details": "Indicates a failure with the `approver` of a token to be approved. Used in approvals.",
          "params": {
            "approver": "Address initiating an approval operation."
          }
        }
      ],
      "ERC20InvalidReceiver(address)": [
        {
          "details": "Indicates a failure with the token `receiver`. Used in transfers.",
          "params": {
            "receiver": "Address to which tokens are being transferred."
          }
        }
      ],
      "ERC20InvalidSender(address)": [
        {
          "details": "Indicates a failure with the token `sender`. Used in transfers.",
          "params": {
            "sender": "Address whose tokens are being transferred."
          }
        }
      ],
      "ERC20InvalidSpender(address)": [
        {
          "details": "Indicates a failure with the `spender` to be approved. Used in approvals.",
          "params": {
            "spender": "Address that may be allowed to operate on tokens without being their owner."
          }
        }
      ],
      "ERC2612ExpiredSignature(uint256)": [
        {
          "details": "Permit deadline has expired."
        }
      ],
      "ERC2612InvalidSigner(address,address)": [
        {
          "details": "Mismatched signature."
        }
      ],
      "ERC5805FutureLookup(uint256,uint48)": [
        {
          "details": "Lookup to future votes is not available."
        }
      ],
      "ERC6372InconsistentClock()": [
        {
          "details": "The clock was incorrectly modified."
        }
      ],
      "InvalidAccountNonce(address,uint256)": [
        {
          "details": "The nonce used for an `account` is not the expected current nonce."
        }
      ],
      "OwnableInvalidOwner(address)": [
        {
          "details": "The owner is not a valid owner account. (eg. `address(0)`)"
        }
      ],
      "OwnableUnauthorizedAccount(address)": [
        {
          "details": "The caller account is not authorized to perform an operation."
        }
      ],
      "SafeCastOverflowedUintDowncast(uint8,uint256)": [
        {
          "details": "Value doesn't fit in an uint of `bits` size."
        }
      ],
      "VotesExpiredSignature(uint256)": [
        {
          "details": "The signature used has expired."
        }
      ]
    },
    "events": {
      "Approval(address,address,uint256)": {
        "details": "Emitted when the allowance of a `spender` for an `owner` is set by a call to {approve}. `value` is the new allowance."
      },
      "DelegateChanged(address,address,address)": {
        "details": "Emitted when an account changes their delegate."
      },
      "DelegateVotesChanged(address,uint256,uint256)": {
        "details": "Emitted when a token transfer or delegate change results in changes to a delegate's number of voting units."
      },
      "EIP712DomainChanged()": {
        "details": "MAY be emitted to signal that the domain could have changed."
      },
      "Transfer(address,address,uint256)": {
        "details": "Emitted when `value` tokens are moved from one account (`from`) to another (`to`). Note that `value` may be zero."
      }
    },
    "kind": "dev",
    "methods": {
      "CLOCK_MODE()": {
        "details": "Machine-readable description of the clock as specified in EIP-6372."
      },
      "DOMAIN_SEPARATOR()": {
        "details": "Returns the domain separator used in the encoding of the signature for {permit}, as defined by {EIP712}."
      },
      "allowance(address,address)": {
        "details": "See {IERC20-allowance}."
      },
      "approve(address,uint256)": {
        "details": "See {IERC20-approve}. NOTE: If `value` is the maximum `uint256`, the allowance is not updated on `transferFrom`. This is semantically equivalent to an infinite approval. Requirements: - `spender` cannot be the zero address."
      },
      "balanceOf(address)": {
        "details": "See {IERC20-balanceOf}."
      },
      "burn(uint256)": {
        "details": "Destroys a `value` amount of tokens from the caller. See {ERC20-_burn}."
      },
      "burnFrom(address,uint256)": {
        "details": "Destroys a `value` amount of tokens from `account`, deducting from the caller's allowance. See {ERC20-_burn} and {ERC20-allowance}. Requirements: - the caller must have allowance for ``accounts``'s tokens of at least `value`."
      },
      "checkpoints(address,uint32)": {
        "details": "Get the `pos`-th checkpoint for `account`."
      },
      "clock()": {
        "details": "Clock used for flagging checkpoints. Can be overridden to implement timestamp based checkpoints (and voting), in which case {CLOCK_MODE} should be overridden as well to match."
      },
      "decimals()": {
        "details": "Returns the number of decimals used to get its user representation. For example, if `decimals` equals `2`, a balance of `505` tokens should be displayed to a user as `5.05` (`505 / 10 ** 2`). Tokens usually opt for a value of 18, imitating the relationship between Ether and Wei. This is the default value returned by this function, unless it's overridden. NOTE: This information is only used for _display_ purposes: it in no way affects any of the arithmetic of the contract, including {IERC20-balanceOf} and {IERC20-transfer}."
      },
      "delegate(address)": {
        "details": "Delegates votes from the sender to `delegatee`."
      },
      "delegateBySig(address,uint256,uint256,uint8,bytes32,bytes32)": {
        "details": "Delegates votes from signer to `delegatee`."
      },
      "delegates(address)": {
        "details": "Returns the delegate that `account` has chosen."
      },
      "eip712Domain()": {
        "details": "See {IERC-5267}."
      },
      "getPastTotalSupply(uint256)": {
        "details": "Returns the total supply of votes available at a specific moment in the past. If the `clock()` is configured to use block numbers, this will return the value at the end of the corresponding block. NOTE: This value is the sum of all available votes, which is not necessarily the sum of all delegated votes. Votes that have not been delegated are still part of total supply, even though they would not participate in a vote. Requirements: - `timepoint` must be in the past. If operating using block numbers, the block must be already mined."
      },
      "getPastVotes(address,uint256)": {
        "details": "Returns the amount of votes that `account` had at a specific moment in the past. If the `clock()` is configured to use block numbers, this will return the value at the end of the corresponding block. Requirements: - `timepoint` must be in the past. If operating using block numbers, the block must be already mined."
      },
      "getVotes(address)": {
        "details": "Returns the current amount of votes that `account` has."
      },
      "name()": {
        "details": "Returns the name of the token."
      },
      "nonces(address)": {
        "details": "Combine nonces from ERC20Permit and ERC20Votes"
      },
      "numCheckpoints(address)": {
        "details": "Get number of checkpoints for `account`."
      },
      "owner()": {
        "details": "Returns the address of the current owner."
      },
      "permit(address,address,uint256,uint256,uint8,bytes32,bytes32)": {
        "details": "Sets `value` as the allowance of `spender` over ``owner``'s tokens, given ``owner``'s signed approval. IMPORTANT: The same issues {IERC20-approve} has related to transaction ordering also apply here. Emits an {Approval} event. Requirements: - `spender` cannot be the zero address. - `deadline` must be a timestamp in the future. - `v`, `r` and `s` must be a valid `secp256k1` signature from `owner` over the EIP712-formatted function arguments. - the signature must use ``owner``'s current nonce (see {nonces}). For more information on the signature format, see the https://eips.ethereum.org/EIPS/eip-2612#specification[relevant EIP section]. CAUTION: See Security Considerations above."
      },
      "renounceOwnership()": {
        "details": "Leaves the contract without owner. It will not be possible to call `onlyOwner` functions. Can only be called by the current owner. NOTE: Renouncing ownership will leave the contract without an owner, thereby disabling any functionality that is only available to the owner."
      },
      "symbol()": {
        "details": "Returns the symbol of the token, usually a shorter version of the name."
      },
      "totalSupply()": {
        "details": "See {IERC20-totalSupply}."
      },
      "transfer(address,uint256)": {
        "details": "See {IERC20-transfer}. Requirements: - `to` cannot be the zero address. - the caller must have a balance of at least `value`."
      },
      "transferFrom(address,address,uint256)": {
        "details": "See {IERC20-transferFrom}. Emits an {Approval} event indicating the updated allowance. This is not required by the EIP. See the note at the beginning of {ERC20}. NOTE: Does not update the allowance if the current allowance is the maximum `uint256`. Requirements: - `from` and `to` cannot be the zero address. - `from` must have a balance of at least `value`. - the caller must have allowance for ``from``'s tokens of at least `value`."
      },
      "transferOwnership(address)": {
        "details": "Transfers ownership of the contract to a new account (`newOwner`). Can only be called by the current owner."
      }
    },
    "stateVariables": {
      "TOKEN_INITIAL_SUPPLY": {
        "details": "Total supply of 1,000,000,000 tokens"
      },
      "TOKEN_NAME": {
        "details": "Token name and symbol constants"
      }
    },
    "title": "TheFalseNine",
    "version": 1
  },
  "userdoc": {
    "kind": "user",
    "methods": {
      "constructor": {
        "notice": "Deploy with a fixed supply minted to the deployer (owner)."
      }
    },
    "notice": "A simple, fixed-supply ERC20 token with optional burn and vote functionality.",
    "version": 1
  },
  "storageLayout": {
    "storage": [
      {
        "astId": 988,
        "contract": "contracts/TheFalseNine.sol:TheFalseNine",
        "label": "_balances",
        "offset": 0,
        "slot": "0",
        "type": "t_mapping(t_address,t_uint256)"
      },
      {
        "astId": 994,
        "contract": "contracts/TheFalseNine.sol:TheFalseNine",
        "label": "_allowances",
        "offset": 0,
        "slot": "1",
        "type": "t_mapping(t_address,t_mapping(t_address,t_uint256))"
      },
      {
        "astId": 996,
        "contract": "contracts/TheFalseNine.sol:TheFalseNine",
        "label": "_totalSupply",
        "offset": 0,
        "slot": "2",
        "type": "t_uint256"
      },
      {
        "astId": 998,
        "contract": "contracts/TheFalseNine.sol:TheFalseNine",
        "label": "_name",
        "offset": 0,
        "slot": "3",
        "type": "t_string_storage"
      },
      {
        "astId": 1000,
        "contract": "contracts/TheFalseNine.sol:TheFalseNine",
        "label": "_symbol",
        "offset": 0,
        "slot": "4",
        "type": "t_string_storage"
      },
      {
        "astId": 3017,
        "contract": "contracts/TheFalseNine.sol:TheFalseNine",
        "label": "_nameFallback",
        "offset": 0,
        "slot": "5",
        "type": "t_string_storage"
      },
      {
        "astId": 3019,
        "contract": "contracts/TheFalseNine.sol:TheFalseNine",
        "label": "_versionFallback",
        "offset": 0,
        "slot": "6",
        "type": "t_string_storage"
      },
      {
        "astId": 1996,
        "contract": "contracts/TheFalseNine.sol:TheFalseNine",
        "label": "_nonces",
        "offset": 0,
        "slot": "7",
        "type": "t_mapping(t_address,t_uint256)"
      },
      {
        "astId": 270,
        "contract": "contracts/TheFalseNine.sol:TheFalseNine",
        "label": "_delegatee",
        "offset": 0,
        "slot": "8",
        "type": "t_mapping(t_address,t_address)"
      },
      {
        "astId": 275,
        "contract": "contracts/TheFalseNine.sol:TheFalseNine",
        "label": "_delegateCheckpoints",
        "offset": 0,
        "slot": "9",
        "type": "t_mapping(t_address,t_struct(Trace208)6729_storage)"
      },
      {
        "astId": 278,
        "contract": "contracts/TheFalseNine.sol:TheFalseNine",
        "label": "_totalCheckpoints",
        "offset": 0,
        "slot": "10",
        "type": "t_struct(Trace208)6729_storage"
      },
      {
        "astId": 8,
        "contract": "contracts/TheFalseNine.sol:TheFalseNine",
        "label": "_owner",
        "offset": 0,
        "slot": "11",
        "type": "t_address"
      }
    ],
    "types": {
      "t_address": {
        "encoding": "inplace",
        "label": "address",
        "numberOfBytes": "20"
      },
      "t_array(t_struct(Checkpoint208)6734_storage)dyn_storage": {
        "base": "t_struct(Checkpoint208)6734_storage",
        "encoding": "dynamic_array",
        "label": "struct Checkpoints.Checkpoint208[]",
        "numberOfBytes": "32"
      },
      "t_mapping(t_address,t_address)": {
        "encoding": "mapping",
        "key": "t_address",
        "label": "mapping(address => address)",
        "numberOfBytes": "32",
        "value": "t_address"
      },
      "t_mapping(t_address,t_mapping(t_address,t_uint256))": {
        "encoding": "mapping",
        "key": "t_address",
        "label": "mapping(address => mapping(address => uint256))",
        "numberOfBytes": "32",
        "value": "t_mapping(t_address,t_uint256)"
      },
      "t_mapping(t_address,t_struct(Trace208)6729_storage)": {
        "encoding": "mapping",
        "key": "t_address",
        "label": "mapping(address => struct Checkpoints.Trace208)",
        "numberOfBytes": "32",
        "value": "t_struct(Trace208)6729_storage"
      },
      "t_mapping(t_address,t_uint256)": {
        "encoding": "mapping",
        "key": "t_address",
        "label": "mapping(address => uint256)",
        "numberOfBytes": "32",
        "value": "t_uint256"
      },
      "t_string_storage": {
        "encoding": "bytes",
        "label": "string",
        "numberOfBytes": "32"
      },
      "t_struct(Checkpoint208)6734_storage": {
        "encoding": "inplace",
        "label": "struct Checkpoints.Checkpoint208",
        "members": [
          {
            "astId": 6731,
            "contract": "contracts/TheFalseNine.sol:TheFalseNine",
            "label": "_key",
            "offset": 0,
            "slot": "0",
            "type": "t_uint48"
          },
          {
            "astId": 6733,
            "contract": "contracts/TheFalseNine.sol:TheFalseNine",
            "label": "_value",
            "offset": 6,
            "slot": "0",
            "type": "t_uint208"
          }
        ],
        "numberOfBytes": "32"
      },
      "t_struct(Trace208)6729_storage": {
        "encoding": "inplace",
        "label": "struct Checkpoints.Trace208",
        "members": [
          {
            "astId": 6728,
            "contract": "contracts/TheFalseNine.sol:TheFalseNine",
            "label": "_checkpoints",
            "offset": 0,
            "slot": "0",
            "type": "t_array(t_struct(Checkpoint208)6734_storage)dyn_storage"
          }
        ],
        "numberOfBytes": "32"
      },
      "t_uint208": {
        "encoding": "inplace",
        "label": "uint208",
        "numberOfBytes": "26"
      },
      "t_uint256": {
        "encoding": "inplace",
        "label": "uint256",
        "numberOfBytes": "32"
      },
      "t_uint48": {
        "encoding": "inplace",
        "label": "uint48",
        "numberOfBytes": "6"
      }
    }
  }
}